{
  "transactions": [
    {
      "hash": "0x5f84dce20806f96b7113ccf6a053f6ff12ce74c5d650d9726334586acb2e91a5",
      "transactionType": "CREATE",
      "contractName": "ExpenseVault",
      "contractAddress": "0x4f7724f952a5e9692ab9501e74db2a07afa56c16",
      "function": null,
      "arguments": [
        "0x036CbD53842c5426634e7929541eC2318f3dCF7e"
      ],
      "transaction": {
        "from": "0x042e8214dcfc8648b7b98f173c523611274e81c9",
        "gas": "0x18dd5e",
        "value": "0x0",
        "input": "0x60c08060405234610155576020816116c5803803809161001f8285610159565b83398101031261015557516001600160a01b038116908190036101555760015f5580156101245760805260405160208101907f8b73c3c69bb8fe3d512ecc4cf759cc79239f7b179b0ffacaa9a75d522b39400f82527ff88fd3975ffd7bd151d9af9b4c4c0dfc467e851d5ccc75f1713cf24739c82d9960408201527fc89efdaa54c0f20c7adf612882df0950f5a951637e0307cdcb4c672f298b8bc660608201524660808201523060a082015260a081526100db60c082610159565b51902060a0526040516115349081610191823960805181818160f70152818161029c0152818161084701528181610cb00152610e81015260a051818181610c0001526114410152f35b60405162461bcd60e51b81526020600482015260096024820152683130b2103a37b5b2b760b91b6044820152606490fd5b5f80fd5b601f909101601f19168101906001600160401b0382119082101761017c57604052565b634e487b7160e01b5f52604160045260245ffdfe6080806040526004361015610012575f80fd5b5f3560e01c90816301e1d11414610e595750806318160ddd14610e3c5780632e1a7d4d14610c675780633447e6a614610c235780633644e51514610be95780635e1c174d14610baf57806370a0823114610b77578063786621de14610b3d578063791c27ef146107035780637ecebe00146106cb5780639edb83cf14610698578063a513de5f14610589578063ad008ea614610466578063b6b55f2514610257578063bef7e43e1461020e578063e8a68de6146101a5578063f4f82f381461012a5763fc0c546a146100e2575f80fd5b34610126575f366003190112610126576040517f00000000000000000000000000000000000000000000000000000000000000006001600160a01b03168152602090f35b5f80fd5b3461012657604036600319011261012657610143610ef6565b61014b610f0c565b9060018060a01b03165f52600360205260405f209060018060a01b03165f52602052608060405f20805490600260018201549101549060ff604051938181161515855260081c161515602084015260408301526060820152f35b34610126576060366003190112610126576101be610ef6565b6101c6610f0c565b6101ce610f22565b6001600160a01b039283165f908152600460209081526040808320948616835293815283822092909416815290835281902054905160ff90911615158152f35b346101265761021c36610f47565b9160018060a01b03165f52600560205260405f209060018060a01b03165f5260205260405f20905f52602052602060405f2054604051908152f35b346101265760203660031901126101265760043561027860015f5414610fd3565b60025f55610287811515611140565b6040516370a0823160e01b81523060048201527f00000000000000000000000000000000000000000000000000000000000000006001600160a01b0316602082602481845afa918215610400575f92610431575b5060205f91600154938415808015610428575b6102f79061100c565b841461040b5750610309858095611177565b6001553383526002825260408320610322858254611177565b90556064604051809481936323b872dd60e01b83523360048401523060248401528860448401525af1908115610400575f916103d1575b50156103965760405191825260208201527f90890809c654f11d6e72a28fa60149770a0d11ec6c92319d6ceb2bb0a4ea1a1560403392a260015f55005b60405162461bcd60e51b81526020600482015260136024820152721d1c985b9cd9995c919c9bdb4819985a5b1959606a1b6044820152606490fd5b6103f3915060203d6020116103f9575b6103eb8183610fb1565b810190611077565b83610359565b503d6103e1565b6040513d5f823e3d90fd5b6104216103099161041c8789611046565b611059565b8095611177565b508115156102ee565b9091506020813d60201161045e575b8161044d60209383610fb1565b8101031261012657519060206102db565b3d9150610440565b346101265761014036600319011261012657610480610ef6565b610488610f0c565b610490610f38565b6064356084359160a43593841515958686036101265760e43560c43560ff821682036101265761058798610582926001600160a01b038516926104d48415156110cd565b6104e081421115611184565b835f52600660205260405f208054906104f8826111ba565b90556040519360208501957f37687862c6990b0432f9e0736b6d352be1c9e2c297868803adbb8c69da16ea498752604086015260018060a01b038916606086015289151560808601528a60a08601528b60c086015260e0850152610100840152610120830152610120825261056f61014083610fb1565b6101243592610104359251902085611424565b611241565b005b3461012657610100366003190112610126576105a3610ef6565b6105ab610f0c565b6105b3610f22565b60643591821515938484036101265760a43560843560ff821682036101265761058796610693926001600160a01b038516926105f08415156110cd565b6105fc81421115611184565b835f52600660205260405f20805490610614826111ba565b90556040519360208501957fa2dc08fb7bfec5c6af57d6f18f18b3d2144520d6f6141e9280fc29b19d2a00378752604086015260018060a01b038916606086015260018060a01b038a16608086015260a085015260c084015260e083015260e0825261068261010083610fb1565b60e4359260c4359251902085611424565b611392565b34610126576060366003190112610126576105876106b4610ef6565b6106bc610f0c565b6106c4610f38565b9133611392565b34610126576020366003190112610126576001600160a01b036106ec610ef6565b165f526006602052602060405f2054604051908152f35b346101265761071136610f47565b9061071f60015f5414610fd3565b60025f556001600160a01b038316906107398215156110cd565b6001600160a01b0381169361074f851515611105565b61075a841515611140565b825f52600360205260405f2060018060a01b0333165f5260205260405f20916040519261078684610f81565b80549060ff8216158015865260ff602087019360081c1615158352606060026001840154936040890194855201549601958652610b0657518611610ace5751610a6a575b5f848152600560209081526040808320338452825280832062015180420480855292529091205490936107fd8783611177565b905110610a30578561080e91611177565b5f858152600560209081526040808320338452825280832087845282529182902092909255516370a0823160e01b8152306004820152927f00000000000000000000000000000000000000000000000000000000000000006001600160a01b0316929184602481865afa938415610400575f946109fc575b50831515806109f1575b6108999061100c565b866108b860015461041c6108b18861041c8487611046565b9788611046565b106109cb575b855f5260026020528360405f2054106109905761091a926020926108e3868a946111d5565b60405163a9059cbb60e01b81526001600160a01b0390911660048201526024810192909252909283919082905f9082906044820190565b03925af1801561040057610935915f91610971575b5061108f565b604051938452602084015260408301527fabbc9bbd2e72b12cb4cdfd21c680cc184e94ce27ea9207c830de2df318a1aa5160603393a460015f55005b61098a915060203d6020116103f9576103eb8183610fb1565b8761092f565b60405162461bcd60e51b8152602060048201526013602482015272696e73756666696369656e742073686172657360681b6044820152606490fd5b92600181018091116109dd57926108be565b634e487b7160e01b5f52601160045260245ffd5b506001541515610890565b9093506020813d602011610a28575b81610a1860209383610fb1565b8101031261012657519288610886565b3d9150610a0b565b60405162461bcd60e51b8152602060048201526012602482015271195e18d959591cc819185a5b1e531a5b5a5d60721b6044820152606490fd5b5f848152600460209081526040808320338452825280832089845290915290205460ff166107ca5760405162461bcd60e51b81526020600482015260146024820152731b595c98da185b9d081b9bdd08185b1b1bddd95960621b6044820152606490fd5b60405162461bcd60e51b815260206004820152601060248201526f0caf0c6cacac8e640dac2f0a0cae4a8f60831b6044820152606490fd5b60405162461bcd60e51b815260206004820152600f60248201526e1c1bdb1a58de48191a5cd8589b1959608a1b6044820152606490fd5b34610126575f3660031901126101265760206040517f37687862c6990b0432f9e0736b6d352be1c9e2c297868803adbb8c69da16ea498152f35b34610126576020366003190112610126576001600160a01b03610b98610ef6565b165f526002602052602060405f2054604051908152f35b34610126575f3660031901126101265760206040517fa2dc08fb7bfec5c6af57d6f18f18b3d2144520d6f6141e9280fc29b19d2a00378152f35b34610126575f3660031901126101265760206040517f00000000000000000000000000000000000000000000000000000000000000008152f35b346101265760a036600319011261012657610c3c610ef6565b6024358015158103610126576084359081151582036101265761058792606435916044359133611241565b3461012657602036600319011261012657600435610c8860015f5414610fd3565b60025f558015610e0c576001548015610ddf576040516370a0823160e01b81523060048201527f00000000000000000000000000000000000000000000000000000000000000006001600160a01b031691602082602481865afa918215610400575f92610da9575b5061041c82610d03610d0994151561100c565b85611046565b90610d1483336111d5565b60405163a9059cbb60e01b81523360048201526024810183905290602090829060449082905f905af1801561040057610d53915f91610d8a575061108f565b60405191825260208201527ff279e6a1f5e320cca91135676d9cb6e44ca8a08c0b88342bcdb1144f6511b56860403392a260015f55005b610da3915060203d6020116103f9576103eb8183610fb1565b8461092f565b91506020823d602011610dd7575b81610dc460209383610fb1565b810103126101265790519061041c610cf0565b3d9150610db7565b60405162461bcd60e51b8152602060048201526005602482015264656d70747960d81b6044820152606490fd5b60405162461bcd60e51b815260206004820152600860248201526707368617265733d360c41b6044820152606490fd5b34610126575f366003190112610126576020600154604051908152f35b34610126575f366003190112610126576370a0823160e01b81523060048201526020816024817f00000000000000000000000000000000000000000000000000000000000000006001600160a01b03165afa8015610400575f90610ec3575b602090604051908152f35b506020813d602011610eee575b81610edd60209383610fb1565b810103126101265760209051610eb8565b3d9150610ed0565b600435906001600160a01b038216820361012657565b602435906001600160a01b038216820361012657565b604435906001600160a01b038216820361012657565b60443590811515820361012657565b6060906003190112610126576004356001600160a01b038116810361012657906024356001600160a01b0381168103610126579060443590565b6080810190811067ffffffffffffffff821117610f9d57604052565b634e487b7160e01b5f52604160045260245ffd5b90601f8019910116810190811067ffffffffffffffff821117610f9d57604052565b15610fda57565b60405162461bcd60e51b815260206004820152600a6024820152697265656e7472616e637960b01b6044820152606490fd5b1561101357565b60405162461bcd60e51b815260206004820152600b60248201526a195b5c1d1e481d985d5b1d60aa1b6044820152606490fd5b818102929181159184041417156109dd57565b8115611063570490565b634e487b7160e01b5f52601260045260245ffd5b90816020910312610126575180151581036101265790565b1561109657565b60405162461bcd60e51b815260206004820152600f60248201526e1d1c985b9cd9995c8819985a5b1959608a1b6044820152606490fd5b156110d457565b60405162461bcd60e51b81526020600482015260096024820152683130b21037bbb732b960b91b6044820152606490fd5b1561110c57565b60405162461bcd60e51b815260206004820152600c60248201526b189859081b595c98da185b9d60a21b6044820152606490fd5b1561114757565b60405162461bcd60e51b81526020600482015260086024820152670616d6f756e743d360c41b6044820152606490fd5b919082018092116109dd57565b1561118b57565b60405162461bcd60e51b8152602060048201526007602482015266195e1c1a5c995960ca1b6044820152606490fd5b5f1981146109dd5760010190565b919082039182116109dd57565b906112029160018060a01b03165f52600260205260405f206111f88282546111c8565b90556001546111c8565b600155565b1561120e57565b60405162461bcd60e51b815260206004820152600b60248201526a3130b21039b832b73232b960a91b6044820152606490fd5b6001600160a01b03909116949392919061125c861515611207565b82156113605782841061132d577f4730a01abb080a0c96276f16983c7a2643cbac952865b2c004ec3bf7e107038a936080936040519361129b85610f81565b15159384815260026020820198151594858a5260408301848152606084019186835260018060a01b03169a8b5f52600360205260405f208d5f526020526112f560405f2095511515869060ff801983541691151516179055565b51151561ff0085549160081b169061ff00191617845551600184015551910155604051938452602084015260408301526060820152a3565b60405162461bcd60e51b815260206004820152600b60248201526a0c8c2d2d8f278e0cae4a8f60ab1b6044820152606490fd5b60405162461bcd60e51b815260206004820152600a60248201526906d617850657254783d360b41b6044820152606490fd5b926001600160a01b03909116917fbfbbc757b8dd4dce3e268ae9b30b3e657dde86930629c2044a9d6102f0e92f37906020906113cf851515611207565b6001600160a01b0316946113e4861515611105565b6001600160a01b03165f818152600483526040808220878352845280822088835284529020805460ff191660ff86151516179055926040519015158152a4565b93915f9260209460ff6080946040518881019161190160f01b83527f00000000000000000000000000000000000000000000000000000000000000006022830152604282015260428152611479606282610fb1565b5190209360405194855216868401526040830152606082015282805260015afa15610400575f516001600160a01b031680151591826114eb575b5050156114bc57565b60405162461bcd60e51b81526020600482015260076024820152666261642073696760c81b6044820152606490fd5b6001600160a01b03161490505f806114b356fea264697066735822122060eed6ebec4f04f3ad6b5ba384c3620f833731f65e8c5d7a88eafa08030264b064736f6c634300081a0033000000000000000000000000036cbd53842c5426634e7929541ec2318f3dcf7e",
        "nonce": "0x10",
        "chainId": "0x14a34"
      },
      "additionalContracts": [],
      "isFixedGasLimit": false
    },
    {
      "hash": "0xdd98eb153eb7954da6b8399081a914709614826b51dfa7bfe92e06fb7232f44c",
      "transactionType": "CREATE",
      "contractName": "SimulatedLiquidityPool",
      "contractAddress": "0xc715b3f0da1a66fcd4d0e1463be6f89605cf3abb",
      "function": null,
      "arguments": [
        "0x036CbD53842c5426634e7929541eC2318f3dCF7e",
        "500"
      ],
      "transaction": {
        "from": "0x042e8214dcfc8648b7b98f173c523611274e81c9",
        "gas": "0xcd322",
        "value": "0x0",
        "input": "0x60c03461012557601f610b1e38819003918201601f19168301916001600160401b038311848410176101295780849260409485528339810103126101255780516001600160a01b0381169190829003610125576020015190670de0b6b3a764000060015580156100f45761271082116100bf5760805260a052425f556040516109e0908161013e8239608051818181610136015281816102cf01528181610418015281816105140152610789015260a051818181610385015261086a0152f35b60405162461bcd60e51b815260206004820152600d60248201526c0e4c2e8ca40e8dede40d0d2ced609b1b6044820152606490fd5b60405162461bcd60e51b815260206004820152600960248201526818985908185cdcd95d60ba1b6044820152606490fd5b5f80fd5b634e487b7160e01b5f52604160045260245ffdfe60806040526004361015610011575f80fd5b5f3560e01c806327e235e31461064c5780632986c0e51461062f5780632e1a7d4d1461044757806338d52e0f146104035780633a98ef39146103e657806357f7966a146103c45780637b3baab4146103a8578063987f23dd1461036e578063a6afed9514610354578063b0048de01461027f578063b6b55f25146100dd5763f5eb42dc1461009d575f80fd5b346100d95760203660031901126100d9576004356001600160a01b038116908190036100d9575f526002602052602060405f2054604051908152f35b5f80fd5b346100d95760203660031901126100d95760043580156100fd81156106cf565b610105610827565b6040516323b872dd60e01b8152336004820152306024820152604481018390526020816064815f6001600160a01b037f0000000000000000000000000000000000000000000000000000000000000000165af180156102745761016f915f91610245575b50610968565b670de0b6b3a7640000820290828204670de0b6b3a76400001417156102315760015461019a916106b1565b80156101fb57335f52600260205260405f206101b7828254610706565b90556101c581600354610706565b60035560405191825260208201527f73a19dd210f1a7f902193214c0ee91dd35ee5b4d920cba8d519eca65a7b488ca60403392a2005b60405162461bcd60e51b815260206004820152600e60248201526d06d696e7465645368617265733d360941b6044820152606490fd5b634e487b7160e01b5f52601160045260245ffd5b610267915060203d60201161026d575b61025f8183610720565b810190610756565b84610169565b503d610255565b6040513d5f823e3d90fd5b346100d95760203660031901126100d95760043561029e8115156106cf565b6040516323b872dd60e01b8152336004820152306024820152604481018290526020816064815f6001600160a01b037f0000000000000000000000000000000000000000000000000000000000000000165af1801561027457610307915f916103355750610968565b6040519081527fdde74234f2e045fc80d32ef78bcc54f374a5828062ad1f26e515ae38c2846bf160203392a2005b61034e915060203d60201161026d5761025f8183610720565b83610169565b346100d9575f3660031901126100d95761036c610827565b005b346100d9575f3660031901126100d95760206040517f00000000000000000000000000000000000000000000000000000000000000008152f35b346100d9575f3660031901126100d95760205f54604051908152f35b346100d9575f3660031901126100d95760206103de61076e565b604051908152f35b346100d9575f3660031901126100d9576020600354604051908152f35b346100d9575f3660031901126100d9576040517f00000000000000000000000000000000000000000000000000000000000000006001600160a01b03168152602090f35b346100d95760203660031901126100d957600435801561046781156106cf565b61046f610827565b670de0b6b3a7640000820290828204670de0b6b3a76400001417156102315781670de0b6b3a76400006104af6104a860015480956106b1565b938461069e565b041061060f575b335f5260026020528060405f2054106105db57335f52600260205260405f206104e0828254610713565b90556104ee81600354610713565b60035560405163a9059cbb60e01b8152336004820152602481018390526020816044815f7f00000000000000000000000000000000000000000000000000000000000000006001600160a01b03165af1908115610274575f916105bc575b50156105855760405191825260208201527f92ccf450a286a957af52509bc1c9939d1a6a481783e142e41e2499f0bb66ebc660403392a2005b60405162461bcd60e51b815260206004820152600f60248201526e1d1c985b9cd9995c8819985a5b1959608a1b6044820152606490fd5b6105d5915060203d60201161026d5761025f8183610720565b8361054c565b60405162461bcd60e51b815260206004820152600c60248201526b1a5b9cdd59999a58da595b9d60a21b6044820152606490fd5b60018101809111156104b657634e487b7160e01b5f52601160045260245ffd5b346100d9575f3660031901126100d9576020600154604051908152f35b346100d95760203660031901126100d9576004356001600160a01b038116908190036100d9575f5260026020526020670de0b6b3a764000061069560405f20546001549061069e565b04604051908152f35b8181029291811591840414171561023157565b81156106bb570490565b634e487b7160e01b5f52601260045260245ffd5b156106d657565b60405162461bcd60e51b81526020600482015260086024820152670616d6f756e743d360c41b6044820152606490fd5b9190820180921161023157565b9190820391821161023157565b90601f8019910116810190811067ffffffffffffffff82111761074257604052565b634e487b7160e01b5f52604160045260245ffd5b908160209103126100d9575180151581036100d95790565b6040516370a0823160e01b81523060048201526020816024817f00000000000000000000000000000000000000000000000000000000000000006001600160a01b03165afa908115610274575f916107f5575b50670de0b6b3a76400006107da6003546001549061069e565b04808211156107ef576107ec91610713565b90565b50505f90565b90506020813d60201161081f575b8161081060209383610720565b810103126100d957515f6107c1565b3d9150610803565b60035480156109625761083b5f5442610713565b801561095e57670de0b6b3a76400006108596003546001549061069e565b049164496cebb8006108948361088f7f00000000000000000000000000000000000000000000000000000000000000008761069e565b61069e565b049261089e61076e565b808511610956575b50836108ee575b50506060907fe9d95e658b0c714da9de2e12fbed253a24a632058a074dc7c90b8b6618675c7c92425f556001549060405192835260208301526040820152a1565b836108fb91939293610706565b92670de0b6b3a7640000840293808504670de0b6b3a764000014901517156102315761094a6060937fe9d95e658b0c714da9de2e12fbed253a24a632058a074dc7c90b8b6618675c7c956106b1565b600155928192506108ad565b93505f6108a6565b5050565b50425f55565b1561096f57565b60405162461bcd60e51b81526020600482015260136024820152721d1c985b9cd9995c919c9bdb4819985a5b1959606a1b6044820152606490fdfea26469706673582212208074999c78fee823a4ed5af06c4ad4209be20654ad8e9c29ff4e4c4e55b5622864736f6c634300081a0033000000000000000000000000036cbd53842c5426634e7929541ec2318f3dcf7e00000000000000000000000000000000000000000000000000000000000001f4",
        "nonce": "0x11",
        "chainId": "0x14a34"
      },
      "additionalContracts": [],
      "isFixedGasLimit": false
    },
    {
      "hash": "0x2c554884b21e526231aa11931f2219211a6ec90ec3ec7bea3b4a6fa6817f1972",
      "transactionType": "CREATE",
      "contractName": "LiquidityPoolStrategy",
      "contractAddress": "0x8ebdbb325eeab715e6a7a902bb1d59c7e4274af9",
      "function": null,
      "arguments": [
        "0x4F7724F952A5e9692aB9501e74DB2A07Afa56c16",
        "0x036CbD53842c5426634e7929541eC2318f3dCF7e",
        "0xc715B3F0dA1A66fCd4D0E1463bE6f89605cf3ABB"
      ],
      "transaction": {
        "from": "0x042e8214dcfc8648b7b98f173c523611274e81c9",
        "gas": "0xa3c45",
        "value": "0x0",
        "input": "0x60e03461018a57601f6109ff38819003918201601f19168301916001600160401b0383118484101761018e5780849260609460405283398101031261018a57610047816101a2565b906100606040610059602084016101a2565b92016101a2565b906001600160a01b03831615610159576001600160a01b0316908115610128576001600160a01b03169182156100f85760805260a05260c05260405161084890816101b7823960805181818160750152818160be01526102ad015260a05181818161018b0152818161030f015281816105a0015261068f015260c05181818160ff0152818161035f015281816105e4015261063b0152f35b60405162461bcd60e51b8152602060048201526008602482015267189859081c1bdbdb60c21b6044820152606490fd5b60405162461bcd60e51b815260206004820152600960248201526818985908185cdcd95d60ba1b6044820152606490fd5b60405162461bcd60e51b8152602060048201526009602482015268189859081d985d5b1d60ba1b6044820152606490fd5b5f80fd5b634e487b7160e01b5f52604160045260245ffd5b51906001600160a01b038216820361018a5756fe6080806040526004361015610012575f80fd5b5f905f3560e01c90816301e1d114146106135750806316f0115b146105cf57806338d52e0f1461058b5780636edd925914610296578063ce8c42e8146100a75763fbfa77cf14610060575f80fd5b346100a457806003193601126100a4576040517f00000000000000000000000000000000000000000000000000000000000000006001600160a01b03168152602090f35b80fd5b50346100a45760203660031901126100a4576004357f00000000000000000000000000000000000000000000000000000000000000006100f1336001600160a01b0383161461078a565b6100fc8215156107c3565b827f00000000000000000000000000000000000000000000000000000000000000006001600160a01b0316803b1561029257818091602460405180958193632e1a7d4d60e01b83528960048401525af1918215610285578492610268575b505060405163a9059cbb60e01b81526001600160a01b039092166004830152602482015260208180604481010381867f00000000000000000000000000000000000000000000000000000000000000006001600160a01b03165af190811561025d57839161022e575b50156101f75760207fdb93cfd57031446e7f3ee4aca74994e2d0a14bc36f4769c43c49c00eb3ec27c191604051908152a180f35b60405162461bcd60e51b815260206004820152600f60248201526e1d1c985b9cd9995c8819985a5b1959608a1b6044820152606490fd5b610250915060203d602011610256575b6102488183610754565b8101906107fa565b5f6101c3565b503d61023e565b6040513d85823e3d90fd5b8192509061027591610754565b6102815781835f61015a565b8280fd5b50604051903d90823e3d90fd5b5080fd5b503461047d57602036600319011261047d576004357f00000000000000000000000000000000000000000000000000000000000000006001600160a01b03166102e033821461078a565b6102eb8215156107c3565b6040516323b872dd60e01b81526004810191909152306024820152604481018290527f00000000000000000000000000000000000000000000000000000000000000006001600160a01b0316906020816064815f865af1908115610472575f9161056c575b50156105315760018060a01b037f0000000000000000000000000000000000000000000000000000000000000000169060405163095ea7b360e01b81528260048201525f60248201526020816044815f865af1908115610472575f91610512575b50156104d65760405163095ea7b360e01b81526001600160a01b03831660048201526024810184905290602090829060449082905f905af1908115610472575f916104b7575b501561048157803b1561047d575f809160246040518094819363b6b55f2560e01b83528760048401525af180156104725761045c575b5060207fab0b2ef41c338acfc198edd27de0adc9bb4fd7eca431d4e863f60b41d783509e91604051908152a180f35b6104699192505f90610754565b5f90602061042d565b6040513d5f823e3d90fd5b5f80fd5b60405162461bcd60e51b815260206004820152600e60248201526d185c1c1c9bdd994819985a5b195960921b6044820152606490fd5b6104d0915060203d602011610256576102488183610754565b5f6103f7565b60405162461bcd60e51b8152602060048201526014602482015273185c1c1c9bdd99481c995cd95d0819985a5b195960621b6044820152606490fd5b61052b915060203d602011610256576102488183610754565b5f6103b1565b60405162461bcd60e51b81526020600482015260136024820152721d1c985b9cd9995c919c9bdb4819985a5b1959606a1b6044820152606490fd5b610585915060203d602011610256576102488183610754565b5f610350565b3461047d575f36600319011261047d576040517f00000000000000000000000000000000000000000000000000000000000000006001600160a01b03168152602090f35b3461047d575f36600319011261047d576040517f00000000000000000000000000000000000000000000000000000000000000006001600160a01b03168152602090f35b3461047d575f36600319011261047d576327e235e360e01b81523060048201526020816024817f00000000000000000000000000000000000000000000000000000000000000006001600160a01b03165afa908115610472575f91610722575b506040516370a0823160e01b81523060048201526020816024817f00000000000000000000000000000000000000000000000000000000000000006001600160a01b03165afa908115610472575f916106f0575b5081018091116106dc57602090604051908152f35b634e487b7160e01b5f52601160045260245ffd5b90506020813d60201161071a575b8161070b60209383610754565b8101031261047d5751826106c7565b3d91506106fe565b90506020813d60201161074c575b8161073d60209383610754565b8101031261047d575181610673565b3d9150610730565b90601f8019910116810190811067ffffffffffffffff82111761077657604052565b634e487b7160e01b5f52604160045260245ffd5b1561079157565b60405162461bcd60e51b815260206004820152600a6024820152691bdb9b1e481d985d5b1d60b21b6044820152606490fd5b156107ca57565b60405162461bcd60e51b81526020600482015260086024820152670616d6f756e743d360c41b6044820152606490fd5b9081602091031261047d5751801515810361047d579056fea2646970667358221220085c052c60ea8701c4fe33361480db01294bed1777d635b81322d6daca84601f64736f6c634300081a00330000000000000000000000004f7724f952a5e9692ab9501e74db2a07afa56c16000000000000000000000000036cbd53842c5426634e7929541ec2318f3dcf7e000000000000000000000000c715b3f0da1a66fcd4d0e1463be6f89605cf3abb",
        "nonce": "0x12",
        "chainId": "0x14a34"
      },
      "additionalContracts": [],
      "isFixedGasLimit": false
    },
    {
      "hash": "0x493c4f03fc1ad2356d3054408cf46623cd0eeef3ef97ca4bddacba4be1069a22",
      "transactionType": "CALL",
      "contractName": null,
      "contractAddress": "0x036cbd53842c5426634e7929541ec2318f3dcf7e",
      "function": "approve(address,uint256)",
      "arguments": [
        "0x4F7724F952A5e9692aB9501e74DB2A07Afa56c16",
        "10000000"
      ],
      "transaction": {
        "from": "0x042e8214dcfc8648b7b98f173c523611274e81c9",
        "to": "0x036cbd53842c5426634e7929541ec2318f3dcf7e",
        "gas": "0x12b1b",
        "value": "0x0",
        "input": "0x095ea7b30000000000000000000000004f7724f952a5e9692ab9501e74db2a07afa56c160000000000000000000000000000000000000000000000000000000000989680",
        "nonce": "0x13",
        "chainId": "0x14a34"
      },
      "additionalContracts": [],
      "isFixedGasLimit": false
    },
    {
      "hash": "0x969127ccd85a94e1296b288e04beb0ccea601969877c4cae0150a223115c11a4",
      "transactionType": "CALL",
      "contractName": "ExpenseVault",
      "contractAddress": "0x4f7724f952a5e9692ab9501e74db2a07afa56c16",
      "function": "deposit(uint256)",
      "arguments": [
        "10000000"
      ],
      "transaction": {
        "from": "0x042e8214dcfc8648b7b98f173c523611274e81c9",
        "to": "0x4f7724f952a5e9692ab9501e74db2a07afa56c16",
        "gas": "0x274ac",
        "value": "0x0",
        "input": "0xb6b55f250000000000000000000000000000000000000000000000000000000000989680",
        "nonce": "0x14",
        "chainId": "0x14a34"
      },
      "additionalContracts": [],
      "isFixedGasLimit": false
    },
    {
      "hash": "0x794acc03a61eb2dec671ecf08b9f89695c56feaaf54a9073d763af48894a7081",
      "transactionType": "CALL",
      "contractName": "ExpenseVault",
      "contractAddress": "0x4f7724f952a5e9692ab9501e74db2a07afa56c16",
      "function": "setPolicyWithSig(address,address,bool,uint256,uint256,bool,uint256,uint8,bytes32,bytes32)",
      "arguments": [
        "0x042E8214DCfc8648B7b98f173C523611274e81C9",
        "0x042E8214DCfc8648B7b98f173C523611274e81C9",
        "true",
        "2000000",
        "6000000",
        "true",
        "1771020216",
        "28",
        "0xbe399ce95037e221e5b18876afb1feacd9dafcc1158a0cb1474c5a27e9a9d85f",
        "0x71c99147754e299c67e7a0e4875e5ce094871362f2565a0dbeeb31f18be61f15"
      ],
      "transaction": {
        "from": "0x042e8214dcfc8648b7b98f173c523611274e81c9",
        "to": "0x4f7724f952a5e9692ab9501e74db2a07afa56c16",
        "gas": "0x28a34",
        "value": "0x0",
        "input": "0xad008ea6000000000000000000000000042e8214dcfc8648b7b98f173c523611274e81c9000000000000000000000000042e8214dcfc8648b7b98f173c523611274e81c9000000000000000000000000000000000000000000000000000000000000000100000000000000000000000000000000000000000000000000000000001e848000000000000000000000000000000000000000000000000000000000005b8d80000000000000000000000000000000000000000000000000000000000000000100000000000000000000000000000000000000000000000000000000698f9fb8000000000000000000000000000000000000000000000000000000000000001cbe399ce95037e221e5b18876afb1feacd9dafcc1158a0cb1474c5a27e9a9d85f71c99147754e299c67e7a0e4875e5ce094871362f2565a0dbeeb31f18be61f15",
        "nonce": "0x15",
        "chainId": "0x14a34"
      },
      "additionalContracts": [],
      "isFixedGasLimit": false
    },
    {
      "hash": "0xad8e9da4803a96c2c2b4b8dd475cb86f854aef61fa43c2305604c431f7cb2c7f",
      "transactionType": "CALL",
      "contractName": "ExpenseVault",
      "contractAddress": "0x4f7724f952a5e9692ab9501e74db2a07afa56c16",
      "function": "setMerchantAllowedWithSig(address,address,address,bool,uint256,uint8,bytes32,bytes32)",
      "arguments": [
        "0x042E8214DCfc8648B7b98f173C523611274e81C9",
        "0x042E8214DCfc8648B7b98f173C523611274e81C9",
        "0x042E8214DCfc8648B7b98f173C523611274e81C9",
        "true",
        "1771020216",
        "27",
        "0xdd722d0dbe90488d6b60040551b557eea4c0e8b8bc6e267e0cf4a9cab2abbe04",
        "0x41b82d8ebaa797f276b0f04c5528681d9cedbd3717090be049b6d1d8ed5b89f8"
      ],
      "transaction": {
        "from": "0x042e8214dcfc8648b7b98f173c523611274e81c9",
        "to": "0x4f7724f952a5e9692ab9501e74db2a07afa56c16",
        "gas": "0x14cba",
        "value": "0x0",
        "input": "0xa513de5f000000000000000000000000042e8214dcfc8648b7b98f173c523611274e81c9000000000000000000000000042e8214dcfc8648b7b98f173c523611274e81c9000000000000000000000000042e8214dcfc8648b7b98f173c523611274e81c9000000000000000000000000000000000000000000000000000000000000000100000000000000000000000000000000000000000000000000000000698f9fb8000000000000000000000000000000000000000000000000000000000000001bdd722d0dbe90488d6b60040551b557eea4c0e8b8bc6e267e0cf4a9cab2abbe0441b82d8ebaa797f276b0f04c5528681d9cedbd3717090be049b6d1d8ed5b89f8",
        "nonce": "0x16",
        "chainId": "0x14a34"
      },
      "additionalContracts": [],
      "isFixedGasLimit": false
    }
  ],
  "receipts": [
    {
      "status": "0x1",
      "cumulativeGasUsed": "0x524c73",
      "logs": [],
      "logsBloom": "0x00000000000000000000000000000000000000000000000000000000000000000000000000000000000000000000000000000000000000000000000000000000000000000000000000000000000000000000000000000000000000000000000000000000000000000000000000000000000000000000000000000000000000000000000000000000000000000000000000000000000000000000000000000000000000000000000000000000000000000000000000000000000000000000000000000000000000000000000000000000000000000000000000000000000000000000000000000000000000000000000000000000000000000000000000000000",
      "type": "0x2",
      "transactionHash": "0x5f84dce20806f96b7113ccf6a053f6ff12ce74c5d650d9726334586acb2e91a5",
      "transactionIndex": "0xa",
      "blockHash": "0x0000000000000000000000000000000000000000000000000000000000000000",
      "blockNumber": "0x2398332",
      "gasUsed": "0x132070",
      "effectiveGasPrice": "0x124f80",
      "blobGasUsed": "0xf9630",
      "from": "0x042e8214dcfc8648b7b98f173c523611274e81c9",
      "to": null,
      "contractAddress": "0x4f7724f952a5e9692ab9501e74db2a07afa56c16",
      "daFootprintGasScalar": "0x138",
      "l1BaseFeeScalar": "0x44d",
      "l1BlobBaseFee": "0x3ee7c9d",
      "l1BlobBaseFeeScalar": "0xa118b",
      "l1Fee": "0x2e7b648753",
      "l1GasPrice": "0x3afd74cf",
      "l1GasUsed": "0xccaf"
    },
    {
      "status": "0x1",
      "cumulativeGasUsed": "0x5c29f0",
      "logs": [],
      "logsBloom": "0x00000000000000000000000000000000000000000000000000000000000000000000000000000000000000000000000000000000000000000000000000000000000000000000000000000000000000000000000000000000000000000000000000000000000000000000000000000000000000000000000000000000000000000000000000000000000000000000000000000000000000000000000000000000000000000000000000000000000000000000000000000000000000000000000000000000000000000000000000000000000000000000000000000000000000000000000000000000000000000000000000000000000000000000000000000000",
      "type": "0x2",
      "transactionHash": "0x969127ccd85a94e1296b288e04beb0ccea601969877c4cae0150a223115c11a4",
      "transactionIndex": "0xb",
      "blockHash": "0x2ca160f2dd0f55631648a233f9d6b390af68aa670dca92846634a20408716e09",
      "blockNumber": "0x2398332",
      "gasUsed": "0x9dd7d",
      "effectiveGasPrice": "0x124f80",
      "blobGasUsed": "0x77358",
      "from": "0x042e8214dcfc8648b7b98f173c523611274e81c9",
      "to": null,
      "contractAddress": "0xc715b3f0da1a66fcd4d0e1463be6f89605cf3abb",
      "daFootprintGasScalar": "0x138",
      "l1BaseFeeScalar": "0x44d",
      "l1BlobBaseFee": "0x3ee7c9d",
      "l1BlobBaseFeeScalar": "0xa118b",
      "l1Fee": "0x1636edd941",
      "l1GasPrice": "0x3afd74cf",
      "l1GasUsed": "0x61d2"
    },
    {
      "status": "0x1",
      "cumulativeGasUsed": "0x640988",
      "logs": [],
      "logsBloom": "0x00000000000000000000000000000000000000000000000000000000000000000000000000000000000000000000000000000000000000000000000000000000000000000000000000000000000000000000000000000000000000000000000000000000000000000000000000000000000000000000000000000000000000000000000000000000000000000000000000000000000000000000000000000000000000000000000000000000000000000000000000000000000000000000000000000000000000000000000000000000000000000000000000000000000000000000000000000000000000000000000000000000000000000000000000000000",
      "type": "0x2",
      "transactionHash": "0x794acc03a61eb2dec671ecf08b9f89695c56feaaf54a9073d763af48894a7081",
      "transactionIndex": "0xc",
      "blockHash": "0x2ca160f2dd0f55631648a233f9d6b390af68aa670dca92846634a20408716e09",
      "blockNumber": "0x2398332",
      "gasUsed": "0x7df98",
      "effectiveGasPrice": "0x124f80",
      "blobGasUsed": "0x67980",
      "from": "0x042e8214dcfc8648b7b98f173c523611274e81c9",
      "to": null,
      "contractAddress": "0x8ebdbb325eeab715e6a7a902bb1d59c7e4274af9",
      "daFootprintGasScalar": "0x138",
      "l1BaseFeeScalar": "0x44d",
      "l1BlobBaseFee": "0x3ee7c9d",
      "l1BlobBaseFeeScalar": "0xa118b",
      "l1Fee": "0x134e48d42b",
      "l1GasPrice": "0x3afd74cf",
      "l1GasUsed": "0x5503"
    },
    {
      "status": "0x1",
      "cumulativeGasUsed": "0x64e215",
      "logs": [
        {
          "address": "0x036cbd53842c5426634e7929541ec2318f3dcf7e",
          "topics": [
            "0x8c5be1e5ebec7d5bd14f71427d1e84f3dd0314c0f7b2291e5b200ac8c7c3b925",
            "0x000000000000000000000000042e8214dcfc8648b7b98f173c523611274e81c9",
            "0x0000000000000000000000004f7724f952a5e9692ab9501e74db2a07afa56c16"
          ],
          "data": "0x0000000000000000000000000000000000000000000000000000000000989680",
          "blockHash": "0x0000000000000000000000000000000000000000000000000000000000000000",
          "blockNumber": "0x2398332",
          "blockTimestamp": "0x69866544",
          "transactionHash": "0xad8e9da4803a96c2c2b4b8dd475cb86f854aef61fa43c2305604c431f7cb2c7f",
          "transactionIndex": "0xd",
          "logIndex": "0x3b",
          "removed": false
        }
      ],
      "logsBloom": "0x00000000040000000001000000000000000000000000000000200000000000000000000000000000000000000000000000000000000000000000000000200000000000000000000000000000000000000000000000000000000000000000000800000000000000000800200000000000000000000000000000000000000000000000000000000000000000000000000000000000030000000000000000000000020000000000000000000000000000000000000000000000000000000000000000000000000000000000000000000000000000000000000000000000000000000010000000000000000000000020000000000000000000000000000000000000",
      "type": "0x2",
      "transactionHash": "0xad8e9da4803a96c2c2b4b8dd475cb86f854aef61fa43c2305604c431f7cb2c7f",
      "transactionIndex": "0xd",
      "blockHash": "0x0000000000000000000000000000000000000000000000000000000000000000",
      "blockNumber": "0x2398332",
      "gasUsed": "0xd88d",
      "effectiveGasPrice": "0x124f80",
      "blobGasUsed": "0x79e0",
      "from": "0x042e8214dcfc8648b7b98f173c523611274e81c9",
      "to": "0x036cbd53842c5426634e7929541ec2318f3dcf7e",
      "contractAddress": null,
      "daFootprintGasScalar": "0x138",
      "l1BaseFeeScalar": "0x44d",
      "l1BlobBaseFee": "0x3ee7c9d",
      "l1BlobBaseFeeScalar": "0xa118b",
      "l1Fee": "0x2e7b648753",
      "l1GasPrice": "0x3afd74cf",
      "l1GasUsed": "0x640"
    },
    {
      "status": "0x1",
      "cumulativeGasUsed": "0x66a93b",
      "logs": [
        {
          "address": "0x036cbd53842c5426634e7929541ec2318f3dcf7e",
          "topics": [
            "0xddf252ad1be2c89b69c2b068fc378daa952ba7f163c4a11628f55a4df523b3ef",
            "0x000000000000000000000000042e8214dcfc8648b7b98f173c523611274e81c9",
            "0x0000000000000000000000004f7724f952a5e9692ab9501e74db2a07afa56c16"
          ],
          "data": "0x0000000000000000000000000000000000000000000000000000000000989680",
          "blockHash": "0x0000000000000000000000000000000000000000000000000000000000000000",
          "blockNumber": "0x2398332",
          "blockTimestamp": "0x69866544",
          "transactionHash": "0x2c554884b21e526231aa11931f2219211a6ec90ec3ec7bea3b4a6fa6817f1972",
          "transactionIndex": "0xe",
          "logIndex": "0x3c",
          "removed": false
        },
        {
          "address": "0x4f7724f952a5e9692ab9501e74db2a07afa56c16",
          "topics": [
            "0x90890809c654f11d6e72a28fa60149770a0d11ec6c92319d6ceb2bb0a4ea1a15",
            "0x000000000000000000000000042e8214dcfc8648b7b98f173c523611274e81c9"
          ],
          "data": "0x00000000000000000000000000000000000000000000000000000000009896800000000000000000000000000000000000000000000000000000000000989680",
          "blockHash": "0x0000000000000000000000000000000000000000000000000000000000000000",
          "blockNumber": "0x2398332",
          "blockTimestamp": "0x69866544",
          "transactionHash": "0x2c554884b21e526231aa11931f2219211a6ec90ec3ec7bea3b4a6fa6817f1972",
          "transactionIndex": "0xe",
          "logIndex": "0x3d",
          "removed": false
        }
      ],
      "logsBloom": "0x00000000040000000001000000000000000000000400000000200000000000000000000000000000000000000000000008000000000000000000000000000000000000000000000000000008000000000000000000000000000000000002000800000000000000000800200000000000000000000000000000000010000000000000000000000000000000000000000000080000030000000000000000000000000000000000000000000000000000000000000000000000000000000000000000000002000000000000000000000000000000000000008000000000000000000000000000000000000000000020000000000000400000000000000000000000",
      "type": "0x2",
      "transactionHash": "0x2c554884b21e526231aa11931f2219211a6ec90ec3ec7bea3b4a6fa6817f1972",
      "transactionIndex": "0xe",
      "blockHash": "0x0000000000000000000000000000000000000000000000000000000000000000",
      "blockNumber": "0x2398332",
      "gasUsed": "0x1c726",
      "effectiveGasPrice": "0x124f80",
      "blobGasUsed": "0x79e0",
      "from": "0x042e8214dcfc8648b7b98f173c523611274e81c9",
      "to": "0x4f7724f952a5e9692ab9501e74db2a07afa56c16",
      "contractAddress": null,
      "daFootprintGasScalar": "0x138",
      "l1BaseFeeScalar": "0x44d",
      "l1BlobBaseFee": "0x3ee7c9d",
      "l1BlobBaseFeeScalar": "0xa118b",
      "l1Fee": "0x2e7b648753",
      "l1GasPrice": "0x3afd74cf",
      "l1GasUsed": "0x640"
    },
    {
      "status": "0x1",
      "cumulativeGasUsed": "0x687ff8",
      "logs": [
        {
          "address": "0x4f7724f952a5e9692ab9501e74db2a07afa56c16",
          "topics": [
            "0x4730a01abb080a0c96276f16983c7a2643cbac952865b2c004ec3bf7e107038a",
            "0x000000000000000000000000042e8214dcfc8648b7b98f173c523611274e81c9",
            "0x000000000000000000000000042e8214dcfc8648b7b98f173c523611274e81c9"
          ],
          "data": "0x000000000000000000000000000000000000000000000000000000000000000100000000000000000000000000000000000000000000000000000000001e848000000000000000000000000000000000000000000000000000000000005b8d800000000000000000000000000000000000000000000000000000000000000001",
          "blockHash": "0x0000000000000000000000000000000000000000000000000000000000000000",
          "blockNumber": "0x2398332",
          "blockTimestamp": "0x69866544",
          "transactionHash": "0x493c4f03fc1ad2356d3054408cf46623cd0eeef3ef97ca4bddacba4be1069a22",
          "transactionIndex": "0xf",
          "logIndex": "0x3e",
          "removed": false
        }
      ],
      "logsBloom": "0x00000000000000000001000000000000000000000000000000000000800000000000000000000000000000000000000000000000000000000000000000000000000000000000000000000000000000000000000000000000000000000002000000000000000000000000200000000000000000000000000000000000000000000000000000000000000000000000000000080000020000000000000000000000000000000000000000000000000000000000200000000000000000000000000000000000000000000000000000000000000000000000008000000000000000000000000000000000000400000000000000000000000000000000000000000000",
      "type": "0x2",
      "transactionHash": "0x493c4f03fc1ad2356d3054408cf46623cd0eeef3ef97ca4bddacba4be1069a22",
      "transactionIndex": "0xf",
      "blockHash": "0x0000000000000000000000000000000000000000000000000000000000000000",
      "blockNumber": "0x2398332",
      "gasUsed": "0x1d6bd",
      "effectiveGasPrice": "0x124f80",
      "blobGasUsed": "0xd548",
      "from": "0x042e8214dcfc8648b7b98f173c523611274e81c9",
      "to": "0x4f7724f952a5e9692ab9501e74db2a07afa56c16",
      "contractAddress": null,
      "daFootprintGasScalar": "0x138",
      "l1BaseFeeScalar": "0x44d",
      "l1BlobBaseFee": "0x3ee7c9d",
      "l1BlobBaseFeeScalar": "0xa118b",
      "l1Fee": "0x2e7b648753",
      "l1GasPrice": "0x3afd74cf",
      "l1GasUsed": "0xafb"
    },
    {
      "status": "0x1",
      "cumulativeGasUsed": "0x69637a",
      "logs": [
        {
          "address": "0x4f7724f952a5e9692ab9501e74db2a07afa56c16",
          "topics": [
            "0xbfbbc757b8dd4dce3e268ae9b30b3e657dde86930629c2044a9d6102f0e92f37",
            "0x000000000000000000000000042e8214dcfc8648b7b98f173c523611274e81c9",
            "0x000000000000000000000000042e8214dcfc8648b7b98f173c523611274e81c9",
            "0x000000000000000000000000042e8214dcfc8648b7b98f173c523611274e81c9"
          ],
          "data": "0x0000000000000000000000000000000000000000000000000000000000000001",
          "blockHash": "0x2ca160f2dd0f55631648a233f9d6b390af68aa670dca92846634a20408716e09",
          "blockNumber": "0x2398332",
          "blockTimestamp": "0x69866544",
          "transactionHash": "0xdd98eb153eb7954da6b8399081a914709614826b51dfa7bfe92e06fb7232f44c",
          "transactionIndex": "0x10",
          "logIndex": "0x3f",
          "removed": false
        }
      ],
      "logsBloom": "0x00000000008000000001000000000000000000000000000000000000000000000000000000000000000000000000000000000000000000000000000000000000000000000000000000000000000000000000000000000000000000000002000000000000000000000000200000000000000000000000000000000000000000000000000000000000000000000000000000080000020000000000000000000000000000000000000000000000000000000000000000040000000000000000000000000000000000000000000000000000000000000000008000000000000000000000000000000000000000000000000000000000000002000000000000000000",
      "type": "0x2",
      "transactionHash": "0xdd98eb153eb7954da6b8399081a914709614826b51dfa7bfe92e06fb7232f44c",
      "transactionIndex": "0x10",
      "blockHash": "0x2ca160f2dd0f55631648a233f9d6b390af68aa670dca92846634a20408716e09",
      "blockNumber": "0x2398332",
      "gasUsed": "0xe382",
      "effectiveGasPrice": "0x124f80",
      "blobGasUsed": "0xc300",
      "from": "0x042e8214dcfc8648b7b98f173c523611274e81c9",
      "to": "0x4f7724f952a5e9692ab9501e74db2a07afa56c16",
      "contractAddress": null,
      "daFootprintGasScalar": "0x138",
      "l1BaseFeeScalar": "0x44d",
      "l1BlobBaseFee": "0x3ee7c9d",
      "l1BlobBaseFeeScalar": "0xa118b",
      "l1Fee": "0x247d5811f",
      "l1GasPrice": "0x3afd74cf",
      "l1GasUsed": "0xa0a"
    }
  ],
  "libraries": [],
  "pending": [],
  "returns": {},
  "timestamp": 1770415429336,
  "chain": 84532,
  "commit": null
}