{
  "transactions": [
    {
      "hash": "0xe1fea921afeb15de90f07e2fc79ee684fa279aba5f4e62151e4fb74fac8000bf",
      "transactionType": "CREATE",
      "contractName": "ExpenseVault",
      "contractAddress": "0xcd0929e149eacff1a1b3c4cd9dd08b4e17b6d2c1",
      "function": null,
      "arguments": [
        "0x036CbD53842c5426634e7929541eC2318f3dCF7e"
      ],
      "transaction": {
        "from": "0x042e8214dcfc8648b7b98f173c523611274e81c9",
        "gas": "0x20f6ce",
        "value": "0x0",
        "input": "0x60e0806040523461018657602081611e5c803803809161001f828561018a565b83398101031261018657516001600160a01b038116908190036101865760015f558015610155576080523360a05260405160208101907f8b73c3c69bb8fe3d512ecc4cf759cc79239f7b179b0ffacaa9a75d522b39400f82527ff88fd3975ffd7bd151d9af9b4c4c0dfc467e851d5ccc75f1713cf24739c82d9960408201527fc89efdaa54c0f20c7adf612882df0950f5a951637e0307cdcb4c672f298b8bc660608201524660808201523060a082015260a081526100df60c08261018a565b51902060c052604051611c9a90816101c2823960805181818161012c0152818161037d01528181610a4401528181610ecb01528181611029015281816113f80152611793015260a0518181816101740152818161074701528181610dc40152610fb3015260c051818181610d340152611ba70152f35b60405162461bcd60e51b81526020600482015260096024820152683130b2103a37b5b2b760b91b6044820152606490fd5b5f80fd5b601f909101601f19168101906001600160401b038211908210176101ad57604052565b634e487b7160e01b5f52604160045260245ffdfe60806040526004361015610011575f80fd5b5f803560e01c806301e1d114146112bd57806318160ddd146112a05780632afcf48014610f985780632e1a7d4d14610e3857806333a100ca14610da45780633447e6a614610d575780633644e51514610d1c5780635e1c174d14610ce157806370a0823114610ca8578063786621de14610c6d578063791c27ef1461086a5780637ecebe00146108315780638ca179951461072c5780639edb83cf146106f8578063a513de5f146105e4578063a8c62e76146105bb578063ad008ea61461048e578063b6b55f25146102d7578063bef7e43e14610292578063e8a68de61461021f578063f4f82f38146101a3578063f851a4401461015e5763fc0c546a14610117575f80fd5b3461015b578060031936011261015b576040517f00000000000000000000000000000000000000000000000000000000000000006001600160a01b03168152602090f35b80fd5b503461015b578060031936011261015b576040517f00000000000000000000000000000000000000000000000000000000000000006001600160a01b03168152602090f35b503461015b57604036600319011261015b5760406101bf6112df565b916101c86112f5565b9260018060a01b031681526004602052209060018060a01b03165f52602052608060405f20805490600260018201549101549060ff604051938181161515855260081c161515602084015260408301526060820152f35b503461015b57606036600319011261015b576102396112df565b9060406102446112f5565b9161024d61130b565b9360018060a01b031681526005602052209060018060a01b03165f5260205260405f209060018060a01b03165f52602052602060ff60405f2054166040519015158152f35b503461015b5760406020916102a636611330565b6001600160a01b03928316845260068652848420919092165f90815290855283902090825283522054604051908152f35b503461015b57602036600319011261015b576004356102f9600183541461151b565b60028255610308811515611554565b6103106113dd565b600254908115808015610485575b610327906115dd565b1561046857506103388280926113bc565b6002553383526003602052604083206103528282546113bc565b90556040516323b872dd60e01b815233600482015230602482015260448101839052602081606481877f00000000000000000000000000000000000000000000000000000000000000006001600160a01b03165af190811561045d57849161042e575b50156103f35760405191825260208201527f90890809c654f11d6e72a28fa60149770a0d11ec6c92319d6ceb2bb0a4ea1a1560403392a26001815580f35b60405162461bcd60e51b81526020600482015260136024820152721d1c985b9cd9995c919c9bdb4819985a5b1959606a1b6044820152606490fd5b610450915060203d602011610456575b610448818361139a565b8101906115c5565b5f6103b5565b503d61043e565b6040513d86823e3d90fd5b61047e610338916104798486611617565b61162a565b80926113bc565b5081151561031e565b503461015b5761014036600319011261015b576104a96112df565b6104b16112f5565b6104b9611321565b6064356084359160a43593841515958686036105b75760e43560c43560ff821682036105b3576105b0986105ab926001600160a01b038516926104fd841515611686565b610509814211156116f9565b838d52600760205260408d208054906105218261172f565b90556040519360208501957f37687862c6990b0432f9e0736b6d352be1c9e2c297868803adbb8c69da16ea498752604086015260018060a01b038916606086015289151560808601528a60a08601528b60c086015260e085015261010084015261012083015261012082526105986101408361139a565b6101243592610104359251902085611b8a565b6119a7565b80f35b8980fd5b8780fd5b503461015b578060031936011261015b576001546040516001600160a01b039091168152602090f35b503461015b5761010036600319011261015b576105ff6112df565b6106076112f5565b61060f61130b565b60643591821515938484036106f45760a43560843560ff821682036105b7576105b0966106ef926001600160a01b0385169261064c841515611686565b610658814211156116f9565b838b52600760205260408b208054906106708261172f565b90556040519360208501957fa2dc08fb7bfec5c6af57d6f18f18b3d2144520d6f6141e9280fc29b19d2a00378752604086015260018060a01b038916606086015260018060a01b038a16608086015260a085015260c084015260e083015260e082526106de6101008361139a565b60e4359260c4359251902085611b8a565b611af8565b8580fd5b503461015b57606036600319011261015b576105b06107156112df565b61071d6112f5565b610725611321565b9133611af8565b503461015b57602036600319011261015b57600435610775337f00000000000000000000000000000000000000000000000000000000000000006001600160a01b0316146114e2565b610782600183541461151b565b60028255610791811515611554565b60015482906001600160a01b03166107aa81151561158b565b803b15610822578180916024604051809481936319d1885d60e31b83528860048401525af180156108265761080d575b507f0dbc40ccd4fca1b5bf46f23e99aaefe371e661e9ca0c45dc1b79e5e321d3b99d602083604051908152a16001815580f35b816108179161139a565b61082257815f6107da565b5080fd5b6040513d84823e3d90fd5b503461015b57602036600319011261015b576020906040906001600160a01b036108596112df565b168152600783522054604051908152f35b503461015b5761087936611330565b9091610888600185541461151b565b600284556001600160a01b038116906108a2821515611686565b6001600160a01b038416936108b88515156116be565b6108c3841515611554565b82865260046020526040862060018060a01b0333165f5260205260405f2091604051926108ef8461136a565b80549060ff8216158015865260ff602087019360081c1615158352606060026001840154936040890194855201549601958652610c3657518611610bfe5751610b92575b838752600660209081526040808920335f908152908352819020620151804204808b529252882054909361096787836113bc565b905110610b585785610978916113bc565b84885260066020526040882060018060a01b0333165f5260205260405f2084895260205260408820556109a96113dd565b9182151580610b4d575b6109bc906115dd565b856109db6002546104796109d4876104798487611617565b9687611617565b10610b27575b848852600360205282604089205410610aec5785602091610a0585610a3f9561174a565b610a0e8261177c565b60405163a9059cbb60e01b81526001600160a01b039091166004820152602481019190915291829081906044820190565b03818a7f00000000000000000000000000000000000000000000000000000000000000006001600160a01b03165af18015610ae157610a85918891610ac2575b50611648565b604051938452602084015260408301527fabbc9bbd2e72b12cb4cdfd21c680cc184e94ce27ea9207c830de2df318a1aa5160603393a46001815580f35b610adb915060203d60201161045657610448818361139a565b5f610a7f565b6040513d89823e3d90fd5b60405162461bcd60e51b8152602060048201526013602482015272696e73756666696369656e742073686172657360681b6044820152606490fd5b9160018101809111610b3957916109e1565b634e487b7160e01b88526011600452602488fd5b5060025415156109b3565b60405162461bcd60e51b8152602060048201526012602482015271195e18d959591cc819185a5b1e531a5b5a5d60721b6044820152606490fd5b83875260056020526040872060018060a01b0333165f5260205260405f20865f5260205260ff60405f2054166109335760405162461bcd60e51b81526020600482015260146024820152731b595c98da185b9d081b9bdd08185b1b1bddd95960621b6044820152606490fd5b60405162461bcd60e51b815260206004820152601060248201526f0caf0c6cacac8e640dac2f0a0cae4a8f60831b6044820152606490fd5b60405162461bcd60e51b815260206004820152600f60248201526e1c1bdb1a58de48191a5cd8589b1959608a1b6044820152606490fd5b503461015b578060031936011261015b5760206040517f37687862c6990b0432f9e0736b6d352be1c9e2c297868803adbb8c69da16ea498152f35b503461015b57602036600319011261015b576020906040906001600160a01b03610cd06112df565b168152600383522054604051908152f35b503461015b578060031936011261015b5760206040517fa2dc08fb7bfec5c6af57d6f18f18b3d2144520d6f6141e9280fc29b19d2a00378152f35b503461015b578060031936011261015b5760206040517f00000000000000000000000000000000000000000000000000000000000000008152f35b503461015b5760a036600319011261015b57610d716112df565b6024358015158103610da057608435908115158203610d9c576105b0926064359160443591336119a7565b8380fd5b8280fd5b503461015b57602036600319011261015b57610dbe6112df565b610df2337f00000000000000000000000000000000000000000000000000000000000000006001600160a01b0316146114e2565b600180546001600160a01b0319166001600160a01b039290921691821790557fe70d79dad95c835bdd87e9cf4665651c9e5abb3b756e4fd2bf45f29c95c3aa408280a280f35b503461015b57602036600319011261015b57600435610e5a600183541461151b565b600282558015610f68576002548015610f3b57610e8d90610479610e7c6113dd565b610e878115156115dd565b84611617565b610e97823361174a565b610ea08161177c565b60405163a9059cbb60e01b815233600482015260248101829052602081604481876001600160a01b037f0000000000000000000000000000000000000000000000000000000000000000165af1801561045d57610f03918591610ac25750611648565b60405191825260208201527ff279e6a1f5e320cca91135676d9cb6e44ca8a08c0b88342bcdb1144f6511b56860403392a26001815580f35b60405162461bcd60e51b8152602060048201526005602482015264656d70747960d81b6044820152606490fd5b60405162461bcd60e51b815260206004820152600860248201526707368617265733d360c41b6044820152606490fd5b503461117e57602036600319011261117e57600435610fe1337f00000000000000000000000000000000000000000000000000000000000000006001600160a01b0316146114e2565b610fee60015f541461151b565b60025f55610ffd811515611554565b6001546001600160a01b031661101481151561158b565b6040516370a0823160e01b81523060048201527f00000000000000000000000000000000000000000000000000000000000000006001600160a01b031690602081602481855afa80156111735784915f9161126b575b50106112325760405163095ea7b360e01b81528260048201525f60248201526020816044815f865af1908115611173575f91611213575b50156111d75760405163095ea7b360e01b81526001600160a01b0392909216600483015260248201839052602090829060449082905f905af1908115611173575f916111b8575b5015611182576001546001600160a01b0316803b1561117e575f8091602460405180948193636edd925960e01b83528760048401525af180156111735761115d575b5060207fac9f7997c30b6a3cc9c74953898b5de154359339c7ec0d6d70ceb98e55db1a4b91604051908152a16001815580f35b61116a9192505f9061139a565b5f90602061112a565b6040513d5f823e3d90fd5b5f80fd5b60405162461bcd60e51b815260206004820152600e60248201526d185c1c1c9bdd994819985a5b195960921b6044820152606490fd5b6111d1915060203d60201161045657610448818361139a565b5f6110e8565b60405162461bcd60e51b8152602060048201526014602482015273185c1c1c9bdd99481c995cd95d0819985a5b195960621b6044820152606490fd5b61122c915060203d60201161045657610448818361139a565b5f6110a1565b60405162461bcd60e51b8152602060048201526011602482015270696e73756666696369656e742069646c6560781b6044820152606490fd5b9150506020813d602011611298575b816112876020938361139a565b8101031261117e578390515f61106a565b3d915061127a565b3461117e575f36600319011261117e576020600254604051908152f35b3461117e575f36600319011261117e5760206112d76113dd565b604051908152f35b600435906001600160a01b038216820361117e57565b602435906001600160a01b038216820361117e57565b604435906001600160a01b038216820361117e57565b60443590811515820361117e57565b606090600319011261117e576004356001600160a01b038116810361117e57906024356001600160a01b038116810361117e579060443590565b6080810190811067ffffffffffffffff82111761138657604052565b634e487b7160e01b5f52604160045260245ffd5b90601f8019910116810190811067ffffffffffffffff82111761138657604052565b919082018092116113c957565b634e487b7160e01b5f52601160045260245ffd5b6040516370a0823160e01b81523060048201526020816024817f00000000000000000000000000000000000000000000000000000000000000006001600160a01b03165afa908115611173575f916114b0575b506001546001600160a01b031680156114ac57906020600492604051938480926278744560e21b82525afa908115611173575f91611476575b61147392506113bc565b90565b90506020823d6020116114a4575b816114916020938361139a565b8101031261117e57611473915190611469565b3d9150611484565b5090565b90506020813d6020116114da575b816114cb6020938361139a565b8101031261117e57515f611430565b3d91506114be565b156114e957565b60405162461bcd60e51b815260206004820152600a60248201526937b7363c9030b236b4b760b11b6044820152606490fd5b1561152257565b60405162461bcd60e51b815260206004820152600a6024820152697265656e7472616e637960b01b6044820152606490fd5b1561155b57565b60405162461bcd60e51b81526020600482015260086024820152670616d6f756e743d360c41b6044820152606490fd5b1561159257565b60405162461bcd60e51b815260206004820152600b60248201526a6e6f20737472617465677960a81b6044820152606490fd5b9081602091031261117e5751801515810361117e5790565b156115e457565b60405162461bcd60e51b815260206004820152600b60248201526a195b5c1d1e481d985d5b1d60aa1b6044820152606490fd5b818102929181159184041417156113c957565b8115611634570490565b634e487b7160e01b5f52601260045260245ffd5b1561164f57565b60405162461bcd60e51b815260206004820152600f60248201526e1d1c985b9cd9995c8819985a5b1959608a1b6044820152606490fd5b1561168d57565b60405162461bcd60e51b81526020600482015260096024820152683130b21037bbb732b960b91b6044820152606490fd5b156116c557565b60405162461bcd60e51b815260206004820152600c60248201526b189859081b595c98da185b9d60a21b6044820152606490fd5b1561170057565b60405162461bcd60e51b8152602060048201526007602482015266195e1c1a5c995960ca1b6044820152606490fd5b5f1981146113c95760010190565b919082039182116113c957565b906117779160018060a01b03165f52600360205260405f2061176d82825461173d565b905560025461173d565b600255565b6040516370a0823160e01b81523060048201525f907f00000000000000000000000000000000000000000000000000000000000000006001600160a01b031690602081602481855afa908115611173575f9161193b575b5083811015611935576001546001600160a01b03169081156118f7576117f9908561173d565b813b1561117e575f916024839260405194859384926319d1885d60e31b845260048401525af18015611173576118e1575b506020602491604051928380926370a0823160e01b82523060048301525afa9182156118d557916118a3575b501061185e57565b60405162461bcd60e51b815260206004820152601c60248201527f6c6971756964697479207374696c6c20696e73756666696369656e74000000006044820152606490fd5b90506020813d6020116118cd575b816118be6020938361139a565b8101031261117e57515f611856565b3d91506118b1565b604051903d90823e3d90fd5b6118ee9192505f9061139a565b5f90602061182a565b60405162461bcd60e51b8152602060048201526016602482015275696e73756666696369656e74206c697175696469747960501b6044820152606490fd5b50505050565b90506020813d602011611965575b816119566020938361139a565b8101031261117e57515f6117d3565b3d9150611949565b1561197457565b60405162461bcd60e51b815260206004820152600b60248201526a3130b21039b832b73232b960a91b6044820152606490fd5b6001600160a01b0390911694939291906119c286151561196d565b8215611ac657828410611a93577f4730a01abb080a0c96276f16983c7a2643cbac952865b2c004ec3bf7e107038a9360809360405193611a018561136a565b15159384815260026020820198151594858a5260408301848152606084019186835260018060a01b03169a8b5f52600460205260405f208d5f52602052611a5b60405f2095511515869060ff801983541691151516179055565b51151561ff0085549160081b169061ff00191617845551600184015551910155604051938452602084015260408301526060820152a3565b60405162461bcd60e51b815260206004820152600b60248201526a0c8c2d2d8f278e0cae4a8f60ab1b6044820152606490fd5b60405162461bcd60e51b815260206004820152600a60248201526906d617850657254783d360b41b6044820152606490fd5b926001600160a01b03909116917fbfbbc757b8dd4dce3e268ae9b30b3e657dde86930629c2044a9d6102f0e92f3790602090611b3585151561196d565b6001600160a01b031694611b4a8615156116be565b6001600160a01b03165f818152600583526040808220878352845280822088835284529020805460ff191660ff86151516179055926040519015158152a4565b93915f9260209460ff6080946040518881019161190160f01b83527f00000000000000000000000000000000000000000000000000000000000000006022830152604282015260428152611bdf60628261139a565b5190209360405194855216868401526040830152606082015282805260015afa15611173575f516001600160a01b03168015159182611c51575b505015611c2257565b60405162461bcd60e51b81526020600482015260076024820152666261642073696760c81b6044820152606490fd5b6001600160a01b03161490505f80611c1956fea264697066735822122011a586bfd38a4a9a0f262699fc6965971606b15883ebc577e64073d877770a4d64736f6c634300081a0033000000000000000000000000036cbd53842c5426634e7929541ec2318f3dcf7e",
        "nonce": "0x25",
        "chainId": "0x14a34"
      },
      "additionalContracts": [],
      "isFixedGasLimit": false
    },
    {
      "hash": "0x01e8954b4da43ca23069aed41519d38c858f91371aa843b549d106b0ddadbacf",
      "transactionType": "CREATE",
      "contractName": "SimulatedLiquidityPool",
      "contractAddress": "0x01aad94d3071ec8c26def854f92aad46df5cf52a",
      "function": null,
      "arguments": [
        "0x036CbD53842c5426634e7929541eC2318f3dCF7e",
        "500"
      ],
      "transaction": {
        "from": "0x042e8214dcfc8648b7b98f173c523611274e81c9",
        "gas": "0xe1c32",
        "value": "0x0",
        "input": "0x60c03461012557601f610c4a38819003918201601f19168301916001600160401b038311848410176101295780849260409485528339810103126101255780516001600160a01b0381169190829003610125576020015190670de0b6b3a764000060015580156100f45761271082116100bf5760805260a052425f55604051610b0c908161013e8239608051818181610144015281816102dd01528181610426015281816105b301526108b7015260a05181818161039301526109bd0152f35b60405162461bcd60e51b815260206004820152600d60248201526c0e4c2e8ca40e8dede40d0d2ced609b1b6044820152606490fd5b60405162461bcd60e51b815260206004820152600960248201526818985908185cdcd95d60ba1b6044820152606490fd5b5f80fd5b634e487b7160e01b5f52604160045260245ffdfe60806040526004361015610011575f80fd5b5f3560e01c80631c0530841461073d57806327e235e3146106eb5780632986c0e5146106ce5780632e1a7d4d146104ee578063388eed8b1461045557806338d52e0f146104115780633a98ef39146103f457806357f7966a146103d25780637b3baab4146103b6578063987f23dd1461037c578063a6afed9514610362578063b0048de01461028d578063b6b55f25146100f35763f5eb42dc146100b3575f80fd5b346100ef5760203660031901126100ef576004356001600160a01b038116908190036100ef575f526002602052602060405f2054604051908152f35b5f80fd5b346100ef5760203660031901126100ef5760043580156101138115610794565b6040516323b872dd60e01b8152336004820152306024820152604481018390526020816064815f6001600160a01b037f0000000000000000000000000000000000000000000000000000000000000000165af180156102825761017d915f91610253575b50610a0f565b670de0b6b3a7640000820290828204670de0b6b3a764000014171561023f576001546101a891610816565b801561020957335f52600260205260405f206101c5828254610834565b90556101d381600354610834565b60035560405191825260208201527f73a19dd210f1a7f902193214c0ee91dd35ee5b4d920cba8d519eca65a7b488ca60403392a2005b60405162461bcd60e51b815260206004820152600e60248201526d06d696e7465645368617265733d360941b6044820152606490fd5b634e487b7160e01b5f52601160045260245ffd5b610275915060203d60201161027b575b61026d818361084e565b810190610884565b84610177565b503d610263565b6040513d5f823e3d90fd5b346100ef5760203660031901126100ef576004356102ac811515610794565b6040516323b872dd60e01b8152336004820152306024820152604481018290526020816064815f6001600160a01b037f0000000000000000000000000000000000000000000000000000000000000000165af1801561028257610315915f916103435750610a0f565b6040519081527fdde74234f2e045fc80d32ef78bcc54f374a5828062ad1f26e515ae38c2846bf160203392a2005b61035c915060203d60201161027b5761026d818361084e565b83610177565b346100ef575f3660031901126100ef5761037a610955565b005b346100ef575f3660031901126100ef5760206040517f00000000000000000000000000000000000000000000000000000000000000008152f35b346100ef575f3660031901126100ef5760205f54604051908152f35b346100ef575f3660031901126100ef5760206103ec61089c565b604051908152f35b346100ef575f3660031901126100ef576020600354604051908152f35b346100ef575f3660031901126100ef576040517f00000000000000000000000000000000000000000000000000000000000000006001600160a01b03168152602090f35b346100ef575f3660031901126100ef5761047260035415156107cb565b61047a61089c565b80156104bc5760406104ac7f03ee444456b393197d4d278ef9dbbd4fafe9bd43d5e063d0a647524b7c15794492610a51565b60015482519182526020820152a1005b60405162461bcd60e51b815260206004820152600a6024820152696e6f207265736572766560b01b6044820152606490fd5b346100ef5760203660031901126100ef57600435801561050e8115610794565b670de0b6b3a7640000820290828204670de0b6b3a764000014171561023f5781670de0b6b3a764000061054e6105476001548095610816565b9384610803565b04106106ae575b335f5260026020528060405f20541061067a57335f52600260205260405f2061057f828254610841565b905561058d81600354610841565b60035560405163a9059cbb60e01b8152336004820152602481018390526020816044815f7f00000000000000000000000000000000000000000000000000000000000000006001600160a01b03165af1908115610282575f9161065b575b50156106245760405191825260208201527f92ccf450a286a957af52509bc1c9939d1a6a481783e142e41e2499f0bb66ebc660403392a2005b60405162461bcd60e51b815260206004820152600f60248201526e1d1c985b9cd9995c8819985a5b1959608a1b6044820152606490fd5b610674915060203d60201161027b5761026d818361084e565b836105eb565b60405162461bcd60e51b815260206004820152600c60248201526b1a5b9cdd59999a58da595b9d60a21b6044820152606490fd5b600181018091111561055557634e487b7160e01b5f52601160045260245ffd5b346100ef575f3660031901126100ef576020600154604051908152f35b346100ef5760203660031901126100ef576004356001600160a01b038116908190036100ef575f5260026020526020670de0b6b3a764000061073460405f205460015490610803565b04604051908152f35b346100ef5760203660031901126100ef577f03ee444456b393197d4d278ef9dbbd4fafe9bd43d5e063d0a647524b7c15794460406104ac600435610782811515610794565b61078f60035415156107cb565b610a51565b1561079b57565b60405162461bcd60e51b81526020600482015260086024820152670616d6f756e743d360c41b6044820152606490fd5b156107d257565b60405162461bcd60e51b81526020600482015260096024820152686e6f2073686172657360b81b6044820152606490fd5b8181029291811591840414171561023f57565b8115610820570490565b634e487b7160e01b5f52601260045260245ffd5b9190820180921161023f57565b9190820391821161023f57565b90601f8019910116810190811067ffffffffffffffff82111761087057604052565b634e487b7160e01b5f52604160045260245ffd5b908160209103126100ef575180151581036100ef5790565b6040516370a0823160e01b81523060048201526020816024817f00000000000000000000000000000000000000000000000000000000000000006001600160a01b03165afa908115610282575f91610923575b50670de0b6b3a764000061090860035460015490610803565b048082111561091d5761091a91610841565b90565b50505f90565b90506020813d60201161094d575b8161093e6020938361084e565b810103126100ef57515f6108ef565b3d9150610931565b60035415610a0a576109685f5442610841565b8015610a075760607fe9d95e658b0c714da9de2e12fbed253a24a632058a074dc7c90b8b6618675c7c916109ed64496cebb8006109e7836109e2670de0b6b3a76400006109ba60035460015490610803565b047f000000000000000000000000000000000000000000000000000000000000000090610803565b610803565b04610a51565b425f556001549060405192835260208301526040820152a1565b50565b425f55565b15610a1657565b60405162461bcd60e51b81526020600482015260136024820152721d1c985b9cd9995c919c9bdb4819985a5b1959606a1b6044820152606490fd5b908115610ad157610a6061089c565b8015610acb57808311610ac3575b50610a9182670de0b6b3a7640000610a8b60035460015490610803565b04610834565b670de0b6b3a7640000810290808204670de0b6b3a7640000149015171561023f57600354610abe91610816565b600155565b91505f610a6e565b505f9150565b5f915056fea2646970667358221220cc36e14804ae0060ababebecf448333e61c1fe63b6305c19e91eed647286fb1164736f6c634300081a0033000000000000000000000000036cbd53842c5426634e7929541ec2318f3dcf7e00000000000000000000000000000000000000000000000000000000000001f4",
        "nonce": "0x26",
        "chainId": "0x14a34"
      },
      "additionalContracts": [],
      "isFixedGasLimit": false
    },
    {
      "hash": "0xee760c4933ba12309432fa0a776412a1f1ac0b586a637782d1af50defd37d6f2",
      "transactionType": "CREATE",
      "contractName": "LiquidityPoolStrategy",
      "contractAddress": "0x25cde49d19ca3bd2703e176c6e364a10be250fc8",
      "function": null,
      "arguments": [
        "0xcD0929E149EACfF1a1b3C4cd9dd08B4e17b6D2c1",
        "0x036CbD53842c5426634e7929541eC2318f3dCF7e",
        "0x01Aad94D3071EC8c26dEF854f92aaD46DF5cf52A"
      ],
      "transaction": {
        "from": "0x042e8214dcfc8648b7b98f173c523611274e81c9",
        "gas": "0xa3c45",
        "value": "0x0",
        "input": "0x60e03461018a57601f6109ff38819003918201601f19168301916001600160401b0383118484101761018e5780849260609460405283398101031261018a57610047816101a2565b906100606040610059602084016101a2565b92016101a2565b906001600160a01b03831615610159576001600160a01b0316908115610128576001600160a01b03169182156100f85760805260a05260c05260405161084890816101b7823960805181818160750152818160be01526102ad015260a05181818161018b0152818161030f015281816105a0015261068f015260c05181818160ff0152818161035f015281816105e4015261063b0152f35b60405162461bcd60e51b8152602060048201526008602482015267189859081c1bdbdb60c21b6044820152606490fd5b60405162461bcd60e51b815260206004820152600960248201526818985908185cdcd95d60ba1b6044820152606490fd5b60405162461bcd60e51b8152602060048201526009602482015268189859081d985d5b1d60ba1b6044820152606490fd5b5f80fd5b634e487b7160e01b5f52604160045260245ffd5b51906001600160a01b038216820361018a5756fe6080806040526004361015610012575f80fd5b5f905f3560e01c90816301e1d114146106135750806316f0115b146105cf57806338d52e0f1461058b5780636edd925914610296578063ce8c42e8146100a75763fbfa77cf14610060575f80fd5b346100a457806003193601126100a4576040517f00000000000000000000000000000000000000000000000000000000000000006001600160a01b03168152602090f35b80fd5b50346100a45760203660031901126100a4576004357f00000000000000000000000000000000000000000000000000000000000000006100f1336001600160a01b0383161461078a565b6100fc8215156107c3565b827f00000000000000000000000000000000000000000000000000000000000000006001600160a01b0316803b1561029257818091602460405180958193632e1a7d4d60e01b83528960048401525af1918215610285578492610268575b505060405163a9059cbb60e01b81526001600160a01b039092166004830152602482015260208180604481010381867f00000000000000000000000000000000000000000000000000000000000000006001600160a01b03165af190811561025d57839161022e575b50156101f75760207fdb93cfd57031446e7f3ee4aca74994e2d0a14bc36f4769c43c49c00eb3ec27c191604051908152a180f35b60405162461bcd60e51b815260206004820152600f60248201526e1d1c985b9cd9995c8819985a5b1959608a1b6044820152606490fd5b610250915060203d602011610256575b6102488183610754565b8101906107fa565b5f6101c3565b503d61023e565b6040513d85823e3d90fd5b8192509061027591610754565b6102815781835f61015a565b8280fd5b50604051903d90823e3d90fd5b5080fd5b503461047d57602036600319011261047d576004357f00000000000000000000000000000000000000000000000000000000000000006001600160a01b03166102e033821461078a565b6102eb8215156107c3565b6040516323b872dd60e01b81526004810191909152306024820152604481018290527f00000000000000000000000000000000000000000000000000000000000000006001600160a01b0316906020816064815f865af1908115610472575f9161056c575b50156105315760018060a01b037f0000000000000000000000000000000000000000000000000000000000000000169060405163095ea7b360e01b81528260048201525f60248201526020816044815f865af1908115610472575f91610512575b50156104d65760405163095ea7b360e01b81526001600160a01b03831660048201526024810184905290602090829060449082905f905af1908115610472575f916104b7575b501561048157803b1561047d575f809160246040518094819363b6b55f2560e01b83528760048401525af180156104725761045c575b5060207fab0b2ef41c338acfc198edd27de0adc9bb4fd7eca431d4e863f60b41d783509e91604051908152a180f35b6104699192505f90610754565b5f90602061042d565b6040513d5f823e3d90fd5b5f80fd5b60405162461bcd60e51b815260206004820152600e60248201526d185c1c1c9bdd994819985a5b195960921b6044820152606490fd5b6104d0915060203d602011610256576102488183610754565b5f6103f7565b60405162461bcd60e51b8152602060048201526014602482015273185c1c1c9bdd99481c995cd95d0819985a5b195960621b6044820152606490fd5b61052b915060203d602011610256576102488183610754565b5f6103b1565b60405162461bcd60e51b81526020600482015260136024820152721d1c985b9cd9995c919c9bdb4819985a5b1959606a1b6044820152606490fd5b610585915060203d602011610256576102488183610754565b5f610350565b3461047d575f36600319011261047d576040517f00000000000000000000000000000000000000000000000000000000000000006001600160a01b03168152602090f35b3461047d575f36600319011261047d576040517f00000000000000000000000000000000000000000000000000000000000000006001600160a01b03168152602090f35b3461047d575f36600319011261047d576327e235e360e01b81523060048201526020816024817f00000000000000000000000000000000000000000000000000000000000000006001600160a01b03165afa908115610472575f91610722575b506040516370a0823160e01b81523060048201526020816024817f00000000000000000000000000000000000000000000000000000000000000006001600160a01b03165afa908115610472575f916106f0575b5081018091116106dc57602090604051908152f35b634e487b7160e01b5f52601160045260245ffd5b90506020813d60201161071a575b8161070b60209383610754565b8101031261047d5751826106c7565b3d91506106fe565b90506020813d60201161074c575b8161073d60209383610754565b8101031261047d575181610673565b3d9150610730565b90601f8019910116810190811067ffffffffffffffff82111761077657604052565b634e487b7160e01b5f52604160045260245ffd5b1561079157565b60405162461bcd60e51b815260206004820152600a6024820152691bdb9b1e481d985d5b1d60b21b6044820152606490fd5b156107ca57565b60405162461bcd60e51b81526020600482015260086024820152670616d6f756e743d360c41b6044820152606490fd5b9081602091031261047d5751801515810361047d579056fea2646970667358221220085c052c60ea8701c4fe33361480db01294bed1777d635b81322d6daca84601f64736f6c634300081a0033000000000000000000000000cd0929e149eacff1a1b3c4cd9dd08b4e17b6d2c1000000000000000000000000036cbd53842c5426634e7929541ec2318f3dcf7e00000000000000000000000001aad94d3071ec8c26def854f92aad46df5cf52a",
        "nonce": "0x27",
        "chainId": "0x14a34"
      },
      "additionalContracts": [],
      "isFixedGasLimit": false
    },
    {
      "hash": "0xd361e48a4cbb02af0bd7a72f7441f84d0f42cf76b6afd63b13affc5baf6e09a0",
      "transactionType": "CALL",
      "contractName": "ExpenseVault",
      "contractAddress": "0xcd0929e149eacff1a1b3c4cd9dd08b4e17b6d2c1",
      "function": "setStrategy(address)",
      "arguments": [
        "0x25cDE49d19ca3BD2703E176c6e364a10be250fC8"
      ],
      "transaction": {
        "from": "0x042e8214dcfc8648b7b98f173c523611274e81c9",
        "to": "0xcd0929e149eacff1a1b3c4cd9dd08b4e17b6d2c1",
        "gas": "0xf336",
        "value": "0x0",
        "input": "0x33a100ca00000000000000000000000025cde49d19ca3bd2703e176c6e364a10be250fc8",
        "nonce": "0x28",
        "chainId": "0x14a34"
      },
      "additionalContracts": [],
      "isFixedGasLimit": false
    },
    {
      "hash": "0xbd9059b0e6c8825e0e90cc05534d1e55399392b4f9606d02523e6e450d03a45e",
      "transactionType": "CALL",
      "contractName": null,
      "contractAddress": "0x036cbd53842c5426634e7929541ec2318f3dcf7e",
      "function": "approve(address,uint256)",
      "arguments": [
        "0xcD0929E149EACfF1a1b3C4cd9dd08B4e17b6D2c1",
        "50000000"
      ],
      "transaction": {
        "from": "0x042e8214dcfc8648b7b98f173c523611274e81c9",
        "to": "0x036cbd53842c5426634e7929541ec2318f3dcf7e",
        "gas": "0x13cc6",
        "value": "0x0",
        "input": "0x095ea7b3000000000000000000000000cd0929e149eacff1a1b3c4cd9dd08b4e17b6d2c10000000000000000000000000000000000000000000000000000000002faf080",
        "nonce": "0x29",
        "chainId": "0x14a34"
      },
      "additionalContracts": [],
      "isFixedGasLimit": false
    },
    {
      "hash": "0x5b410a8f7ff156ec8277c7a3cd969f0fef4229dc5212704969aa7aafede73e60",
      "transactionType": "CALL",
      "contractName": "ExpenseVault",
      "contractAddress": "0xcd0929e149eacff1a1b3c4cd9dd08b4e17b6d2c1",
      "function": "deposit(uint256)",
      "arguments": [
        "50000000"
      ],
      "transaction": {
        "from": "0x042e8214dcfc8648b7b98f173c523611274e81c9",
        "to": "0xcd0929e149eacff1a1b3c4cd9dd08b4e17b6d2c1",
        "gas": "0x2f7f6",
        "value": "0x0",
        "input": "0xb6b55f250000000000000000000000000000000000000000000000000000000002faf080",
        "nonce": "0x2a",
        "chainId": "0x14a34"
      },
      "additionalContracts": [],
      "isFixedGasLimit": false
    },
    {
      "hash": "0xebb35119bacd29fe8453e7abf96d9581db456169b0cd5861e3b634cb0f3f72f2",
      "transactionType": "CALL",
      "contractName": "ExpenseVault",
      "contractAddress": "0xcd0929e149eacff1a1b3c4cd9dd08b4e17b6d2c1",
      "function": "invest(uint256)",
      "arguments": [
        "30000000"
      ],
      "transaction": {
        "from": "0x042e8214dcfc8648b7b98f173c523611274e81c9",
        "to": "0xcd0929e149eacff1a1b3c4cd9dd08b4e17b6d2c1",
        "gas": "0x3b7f7",
        "value": "0x0",
        "input": "0x2afcf4800000000000000000000000000000000000000000000000000000000001c9c380",
        "nonce": "0x2b",
        "chainId": "0x14a34"
      },
      "additionalContracts": [],
      "isFixedGasLimit": false
    },
    {
      "hash": "0x15e0e440c7fadfd50ec13e85c4db9e0c4e2d620fb145e3f67012db8b4b3639ca",
      "transactionType": "CALL",
      "contractName": "ExpenseVault",
      "contractAddress": "0xcd0929e149eacff1a1b3c4cd9dd08b4e17b6d2c1",
      "function": "setPolicyWithSig(address,address,bool,uint256,uint256,bool,uint256,uint8,bytes32,bytes32)",
      "arguments": [
        "0x042E8214DCfc8648B7b98f173C523611274e81C9",
        "0x26BA8Aa82bFFbEB099255040Ad83fdc8A9B0E2Db",
        "true",
        "20000000",
        "100000000",
        "true",
        "1771114962",
        "27",
        "0x8c0bb1705817a0e279bfba1fc9aead850a107b34ba00850ca9d7069e6d2dcac9",
        "0x68edcdf852b14d7051dee3a48a7e5201033c94a26671ff666708846e78f56e8b"
      ],
      "transaction": {
        "from": "0x042e8214dcfc8648b7b98f173c523611274e81c9",
        "to": "0xcd0929e149eacff1a1b3c4cd9dd08b4e17b6d2c1",
        "gas": "0x2b0e6",
        "value": "0x0",
        "input": "0xad008ea6000000000000000000000000042e8214dcfc8648b7b98f173c523611274e81c900000000000000000000000026ba8aa82bffbeb099255040ad83fdc8a9b0e2db00000000000000000000000000000000000000000000000000000000000000010000000000000000000000000000000000000000000000000000000001312d000000000000000000000000000000000000000000000000000000000005f5e100000000000000000000000000000000000000000000000000000000000000000100000000000000000000000000000000000000000000000000000000699111d2000000000000000000000000000000000000000000000000000000000000001b8c0bb1705817a0e279bfba1fc9aead850a107b34ba00850ca9d7069e6d2dcac968edcdf852b14d7051dee3a48a7e5201033c94a26671ff666708846e78f56e8b",
        "nonce": "0x2c",
        "chainId": "0x14a34"
      },
      "additionalContracts": [],
      "isFixedGasLimit": false
    },
    {
      "hash": "0x7f581b73487708255c6107cd865d3533af4b2d9319283e0e8d813025c8838a10",
      "transactionType": "CALL",
      "contractName": "ExpenseVault",
      "contractAddress": "0xcd0929e149eacff1a1b3c4cd9dd08b4e17b6d2c1",
      "function": "setMerchantAllowedWithSig(address,address,address,bool,uint256,uint8,bytes32,bytes32)",
      "arguments": [
        "0x042E8214DCfc8648B7b98f173C523611274e81C9",
        "0x26BA8Aa82bFFbEB099255040Ad83fdc8A9B0E2Db",
        "0xDf3C4a3634b88e42fE9Ee652619F0a59bC747174",
        "true",
        "1771114962",
        "27",
        "0x98358107be2a810ef168e77c942b99459afca43bbe335c1de2f953361b157801",
        "0x04d7d4c5a40aa8418174ef7ca76581b77b50bece9c5abb780cdc732e8d0bf9c8"
      ],
      "transaction": {
        "from": "0x042e8214dcfc8648b7b98f173c523611274e81c9",
        "to": "0xcd0929e149eacff1a1b3c4cd9dd08b4e17b6d2c1",
        "gas": "0x13a9c",
        "value": "0x0",
        "input": "0xa513de5f000000000000000000000000042e8214dcfc8648b7b98f173c523611274e81c900000000000000000000000026ba8aa82bffbeb099255040ad83fdc8a9b0e2db000000000000000000000000df3c4a3634b88e42fe9ee652619f0a59bc747174000000000000000000000000000000000000000000000000000000000000000100000000000000000000000000000000000000000000000000000000699111d2000000000000000000000000000000000000000000000000000000000000001b98358107be2a810ef168e77c942b99459afca43bbe335c1de2f953361b15780104d7d4c5a40aa8418174ef7ca76581b77b50bece9c5abb780cdc732e8d0bf9c8",
        "nonce": "0x2d",
        "chainId": "0x14a34"
      },
      "additionalContracts": [],
      "isFixedGasLimit": false
    },
    {
      "hash": "0x3099b435e60a510edff4964067c73d69b0b1caffd495d9adb54a7eead9d9f4b7",
      "transactionType": "CALL",
      "contractName": null,
      "contractAddress": "0x036cbd53842c5426634e7929541ec2318f3dcf7e",
      "function": "approve(address,uint256)",
      "arguments": [
        "0x01Aad94D3071EC8c26dEF854f92aaD46DF5cf52A",
        "10000000"
      ],
      "transaction": {
        "from": "0x042e8214dcfc8648b7b98f173c523611274e81c9",
        "to": "0x036cbd53842c5426634e7929541ec2318f3dcf7e",
        "gas": "0x12b1b",
        "value": "0x0",
        "input": "0x095ea7b300000000000000000000000001aad94d3071ec8c26def854f92aad46df5cf52a0000000000000000000000000000000000000000000000000000000000989680",
        "nonce": "0x2e",
        "chainId": "0x14a34"
      },
      "additionalContracts": [],
      "isFixedGasLimit": false
    },
    {
      "hash": "0xafa6022d0d27d6fbb83bd3fbe3e8866e7d53f8616545f0527cda4b701fe0b965",
      "transactionType": "CALL",
      "contractName": "SimulatedLiquidityPool",
      "contractAddress": "0x01aad94d3071ec8c26def854f92aad46df5cf52a",
      "function": "fundYield(uint256)",
      "arguments": [
        "10000000"
      ],
      "transaction": {
        "from": "0x042e8214dcfc8648b7b98f173c523611274e81c9",
        "to": "0x01aad94d3071ec8c26def854f92aad46df5cf52a",
        "gas": "0x11121",
        "value": "0x0",
        "input": "0xb0048de00000000000000000000000000000000000000000000000000000000000989680",
        "nonce": "0x2f",
        "chainId": "0x14a34"
      },
      "additionalContracts": [],
      "isFixedGasLimit": false
    },
    {
      "hash": "0x6ff120229b9a443be2886c53aecdf3435cd91c8de15ad30538cb3f059515dcef",
      "transactionType": "CALL",
      "contractName": "SimulatedLiquidityPool",
      "contractAddress": "0x01aad94d3071ec8c26def854f92aad46df5cf52a",
      "function": "accrueFromReserve(uint256)",
      "arguments": [
        "10000000"
      ],
      "transaction": {
        "from": "0x042e8214dcfc8648b7b98f173c523611274e81c9",
        "to": "0x01aad94d3071ec8c26def854f92aad46df5cf52a",
        "gas": "0xf8f5",
        "value": "0x0",
        "input": "0x1c0530840000000000000000000000000000000000000000000000000000000000989680",
        "nonce": "0x30",
        "chainId": "0x14a34"
      },
      "additionalContracts": [],
      "isFixedGasLimit": false
    }
  ],
  "receipts": [
    {
      "status": "0x1",
      "cumulativeGasUsed": "0x3df702",
      "logs": [],
      "logsBloom": "0x00000000000000000000000000000000000000000000000000000000000000000000000000000000000000000000000000000000000000000000000000000000000000000000000000000000000000000000000000000000000000000000000000000000000000000000000000000000000000000000000000000000000000000000000000000000000000000000000000000000000000000000000000000000000000000000000000000000000000000000000000000000000000000000000000000000000000000000000000000000000000000000000000000000000000000000000000000000000000000000000000000000000000000000000000000000",
      "type": "0x2",
      "transactionHash": "0xebb35119bacd29fe8453e7abf96d9581db456169b0cd5861e3b634cb0f3f72f2",
      "transactionIndex": "0xc",
      "blockHash": "0x819beaa269b2057c1a3b44d54bf8c07281d550927309af2905c599d2e9ab12ea",
      "blockNumber": "0x23a3c43",
      "gasUsed": "0x195b64",
      "effectiveGasPrice": "0x124f80",
      "blobGasUsed": "0x13ec78",
      "from": "0x042e8214dcfc8648b7b98f173c523611274e81c9",
      "to": null,
      "contractAddress": "0xcd0929e149eacff1a1b3c4cd9dd08b4e17b6d2c1",
      "daFootprintGasScalar": "0x138",
      "l1BaseFeeScalar": "0x44d",
      "l1BlobBaseFee": "0x34f4c79",
      "l1BlobBaseFeeScalar": "0xa118b",
      "l1Fee": "0x359f9dcf3a",
      "l1GasPrice": "0x3e39f1bd",
      "l1GasUsed": "0x10591"
    },
    {
      "status": "0x1",
      "cumulativeGasUsed": "0x48d19f",
      "logs": [],
      "logsBloom": "0x00000000000000000000000000000000000000000000000000000000000000000000000000000000000000000000000000000000000000000000000000000000000000000000000000000000000000000000000000000000000000000000000000000000000000000000000000000000000000000000000000000000000000000000000000000000000000000000000000000000000000000000000000000000000000000000000000000000000000000000000000000000000000000000000000000000000000000000000000000000000000000000000000000000000000000000000000000000000000000000000000000000000000000000000000000000",
      "type": "0x2",
      "transactionHash": "0xd361e48a4cbb02af0bd7a72f7441f84d0f42cf76b6afd63b13affc5baf6e09a0",
      "transactionIndex": "0xd",
      "blockHash": "0x819beaa269b2057c1a3b44d54bf8c07281d550927309af2905c599d2e9ab12ea",
      "blockNumber": "0x23a3c43",
      "gasUsed": "0xada9d",
      "effectiveGasPrice": "0x124f80",
      "blobGasUsed": "0x81570",
      "from": "0x042e8214dcfc8648b7b98f173c523611274e81c9",
      "to": null,
      "contractAddress": "0x01aad94d3071ec8c26def854f92aad46df5cf52a",
      "daFootprintGasScalar": "0x138",
      "l1BaseFeeScalar": "0x44d",
      "l1BlobBaseFee": "0x34f4c79",
      "l1BlobBaseFeeScalar": "0xa118b",
      "l1Fee": "0x15c237da7e",
      "l1GasPrice": "0x3e39f1bd",
      "l1GasUsed": "0x6a22"
    },
    {
      "status": "0x1",
      "cumulativeGasUsed": "0x50b137",
      "logs": [],
      "logsBloom": "0x00000000000000000000000000000000000000000000000000000000000000000000000000000000000000000000000000000000000000000000000000000000000000000000000000000000000000000000000000000000000000000000000000000000000000000000000000000000000000000000000000000000000000000000000000000000000000000000000000000000000000000000000000000000000000000000000000000000000000000000000000000000000000000000000000000000000000000000000000000000000000000000000000000000000000000000000000000000000000000000000000000000000000000000000000000000",
      "type": "0x2",
      "transactionHash": "0x01e8954b4da43ca23069aed41519d38c858f91371aa843b549d106b0ddadbacf",
      "transactionIndex": "0xe",
      "blockHash": "0x819beaa269b2057c1a3b44d54bf8c07281d550927309af2905c599d2e9ab12ea",
      "blockNumber": "0x23a3c43",
      "gasUsed": "0x7df98",
      "effectiveGasPrice": "0x124f80",
      "blobGasUsed": "0x67980",
      "from": "0x042e8214dcfc8648b7b98f173c523611274e81c9",
      "to": null,
      "contractAddress": "0x25cde49d19ca3bd2703e176c6e364a10be250fc8",
      "daFootprintGasScalar": "0x138",
      "l1BaseFeeScalar": "0x44d",
      "l1BlobBaseFee": "0x34f4c79",
      "l1BlobBaseFeeScalar": "0xa118b",
      "l1Fee": "0x116db644e8",
      "l1GasPrice": "0x3e39f1bd",
      "l1GasUsed": "0x5503"
    },
    {
      "status": "0x1",
      "cumulativeGasUsed": "0x51614c",
      "logs": [
        {
          "address": "0xcd0929e149eacff1a1b3c4cd9dd08b4e17b6d2c1",
          "topics": [
            "0xe70d79dad95c835bdd87e9cf4665651c9e5abb3b756e4fd2bf45f29c95c3aa40",
            "0x00000000000000000000000025cde49d19ca3bd2703e176c6e364a10be250fc8"
          ],
          "data": "0x",
          "blockHash": "0x819beaa269b2057c1a3b44d54bf8c07281d550927309af2905c599d2e9ab12ea",
          "blockNumber": "0x23a3c43",
          "blockTimestamp": "0x6987d766",
          "transactionHash": "0xe1fea921afeb15de90f07e2fc79ee684fa279aba5f4e62151e4fb74fac8000bf",
          "transactionIndex": "0xf",
          "logIndex": "0x60",
          "removed": false
        }
      ],
      "logsBloom": "0x00000000000000000000000000000000000000000000000000000000000000000000020000000000000000100000000000000000080000000000000000000000000000000000000800000010000000000000000000000000000000080000000000000000000000000080000000000000000000000000000000000000000000000000000000000000000000000000000000000000000000000000000000000000000000000000000000000000000000000000000000000800000000000000000000000000000000000000000000000000000000000000000000000000000000000000000000000000000000000008000000000000000000000000000000000000",
      "type": "0x2",
      "transactionHash": "0xe1fea921afeb15de90f07e2fc79ee684fa279aba5f4e62151e4fb74fac8000bf",
      "transactionIndex": "0xf",
      "blockHash": "0x819beaa269b2057c1a3b44d54bf8c07281d550927309af2905c599d2e9ab12ea",
      "blockNumber": "0x23a3c43",
      "gasUsed": "0xb015",
      "effectiveGasPrice": "0x124f80",
      "blobGasUsed": "0x79e0",
      "from": "0x042e8214dcfc8648b7b98f173c523611274e81c9",
      "to": "0xcd0929e149eacff1a1b3c4cd9dd08b4e17b6d2c1",
      "contractAddress": null,
      "daFootprintGasScalar": "0x138",
      "l1BaseFeeScalar": "0x44d",
      "l1BlobBaseFee": "0x34f4c79",
      "l1BlobBaseFeeScalar": "0xa118b",
      "l1Fee": "0x1480347dd",
      "l1GasPrice": "0x3e39f1bd",
      "l1GasUsed": "0x640"
    },
    {
      "status": "0x1",
      "cumulativeGasUsed": "0x5239e5",
      "logs": [
        {
          "address": "0x036cbd53842c5426634e7929541ec2318f3dcf7e",
          "topics": [
            "0x8c5be1e5ebec7d5bd14f71427d1e84f3dd0314c0f7b2291e5b200ac8c7c3b925",
            "0x000000000000000000000000042e8214dcfc8648b7b98f173c523611274e81c9",
            "0x000000000000000000000000cd0929e149eacff1a1b3c4cd9dd08b4e17b6d2c1"
          ],
          "data": "0x0000000000000000000000000000000000000000000000000000000002faf080",
          "blockHash": "0x819beaa269b2057c1a3b44d54bf8c07281d550927309af2905c599d2e9ab12ea",
          "blockNumber": "0x23a3c43",
          "blockTimestamp": "0x6987d766",
          "transactionHash": "0x15e0e440c7fadfd50ec13e85c4db9e0c4e2d620fb145e3f67012db8b4b3639ca",
          "transactionIndex": "0x10",
          "logIndex": "0x61",
          "removed": false
        }
      ],
      "logsBloom": "0x00000000040000000001000000000000000000000000000000000000000000000000000000000000000000000000000000000000000000000000000000200000000000400000000000000000000000000000000000000000000000000000000800000004000000000000200000000000000000000020000000000000000000000000000000000000000000000000000000000000020000000000000000000000020000000000000000000000000000000000000000000000000000000000000000000000000000000000000000000000000000000000000000000000000000000010000000000000000000000020000000000000000000000000000000000000",
      "type": "0x2",
      "transactionHash": "0x15e0e440c7fadfd50ec13e85c4db9e0c4e2d620fb145e3f67012db8b4b3639ca",
      "transactionIndex": "0x10",
      "blockHash": "0x819beaa269b2057c1a3b44d54bf8c07281d550927309af2905c599d2e9ab12ea",
      "blockNumber": "0x23a3c43",
      "gasUsed": "0xd899",
      "effectiveGasPrice": "0x124f80",
      "blobGasUsed": "0x79e0",
      "from": "0x042e8214dcfc8648b7b98f173c523611274e81c9",
      "to": "0x036cbd53842c5426634e7929541ec2318f3dcf7e",
      "contractAddress": null,
      "daFootprintGasScalar": "0x138",
      "l1BaseFeeScalar": "0x44d",
      "l1BlobBaseFee": "0x34f4c79",
      "l1BlobBaseFeeScalar": "0xa118b",
      "l1Fee": "0x1480347dd",
      "l1GasPrice": "0x3e39f1bd",
      "l1GasUsed": "0x640"
    },
    {
      "status": "0x1",
      "cumulativeGasUsed": "0x2bc38",
      "logs": [
        {
          "address": "0x036cbd53842c5426634e7929541ec2318f3dcf7e",
          "topics": [
            "0xddf252ad1be2c89b69c2b068fc378daa952ba7f163c4a11628f55a4df523b3ef",
            "0x000000000000000000000000042e8214dcfc8648b7b98f173c523611274e81c9",
            "0x000000000000000000000000cd0929e149eacff1a1b3c4cd9dd08b4e17b6d2c1"
          ],
          "data": "0x0000000000000000000000000000000000000000000000000000000002faf080",
          "blockHash": "0x0000000000000000000000000000000000000000000000000000000000000000",
          "blockNumber": "0x23a3c44",
          "blockTimestamp": "0x6987d768",
          "transactionHash": "0xafa6022d0d27d6fbb83bd3fbe3e8866e7d53f8616545f0527cda4b701fe0b965",
          "transactionIndex": "0x1",
          "logIndex": "0x0",
          "removed": false
        },
        {
          "address": "0xcd0929e149eacff1a1b3c4cd9dd08b4e17b6d2c1",
          "topics": [
            "0x90890809c654f11d6e72a28fa60149770a0d11ec6c92319d6ceb2bb0a4ea1a15",
            "0x000000000000000000000000042e8214dcfc8648b7b98f173c523611274e81c9"
          ],
          "data": "0x0000000000000000000000000000000000000000000000000000000002faf0800000000000000000000000000000000000000000000000000000000002faf080",
          "blockHash": "0x0000000000000000000000000000000000000000000000000000000000000000",
          "blockNumber": "0x23a3c44",
          "blockTimestamp": "0x6987d768",
          "transactionHash": "0xafa6022d0d27d6fbb83bd3fbe3e8866e7d53f8616545f0527cda4b701fe0b965",
          "transactionIndex": "0x1",
          "logIndex": "0x1",
          "removed": false
        }
      ],
      "logsBloom": "0x00000000040000000001000000000000000000000400000000000000000000000000020000000000000000000000000008000000000000000000000000000000000000400000000000000018000000000000000000000000000000000000000800000004000000000000200000000000000000000020000000000010000000000000000000000000000000000000000000000000020000000000000000000000000000000000000000000000000000000000000000000800000000000000000000000002000000000000000000000000000000000000000000000000000000000000000000000000000000000020000000000000400000000000000000000000",
      "type": "0x2",
      "transactionHash": "0xafa6022d0d27d6fbb83bd3fbe3e8866e7d53f8616545f0527cda4b701fe0b965",
      "transactionIndex": "0x1",
      "blockHash": "0x0000000000000000000000000000000000000000000000000000000000000000",
      "blockNumber": "0x23a3c44",
      "gasUsed": "0x207a2",
      "effectiveGasPrice": "0x124f80",
      "blobGasUsed": "0x79e0",
      "from": "0x042e8214dcfc8648b7b98f173c523611274e81c9",
      "to": "0xcd0929e149eacff1a1b3c4cd9dd08b4e17b6d2c1",
      "contractAddress": null,
      "daFootprintGasScalar": "0x138",
      "l1BaseFeeScalar": "0x44d",
      "l1BlobBaseFee": "0x34f4c79",
      "l1BlobBaseFeeScalar": "0xa118b",
      "l1Fee": "0x1480347dd",
      "l1GasPrice": "0x3e39f1bd",
      "l1GasUsed": "0x640"
    },
    {
      "status": "0x1",
      "cumulativeGasUsed": "0x56d6d",
      "logs": [
        {
          "address": "0x036cbd53842c5426634e7929541ec2318f3dcf7e",
          "topics": [
            "0x8c5be1e5ebec7d5bd14f71427d1e84f3dd0314c0f7b2291e5b200ac8c7c3b925",
            "0x000000000000000000000000cd0929e149eacff1a1b3c4cd9dd08b4e17b6d2c1",
            "0x00000000000000000000000025cde49d19ca3bd2703e176c6e364a10be250fc8"
          ],
          "data": "0x0000000000000000000000000000000000000000000000000000000000000000",
          "blockHash": "0x0000000000000000000000000000000000000000000000000000000000000000",
          "blockNumber": "0x23a3c44",
          "blockTimestamp": "0x6987d768",
          "transactionHash": "0x5b410a8f7ff156ec8277c7a3cd969f0fef4229dc5212704969aa7aafede73e60",
          "transactionIndex": "0x2",
          "logIndex": "0x2",
          "removed": false
        },
        {
          "address": "0x036cbd53842c5426634e7929541ec2318f3dcf7e",
          "topics": [
            "0x8c5be1e5ebec7d5bd14f71427d1e84f3dd0314c0f7b2291e5b200ac8c7c3b925",
            "0x000000000000000000000000cd0929e149eacff1a1b3c4cd9dd08b4e17b6d2c1",
            "0x00000000000000000000000025cde49d19ca3bd2703e176c6e364a10be250fc8"
          ],
          "data": "0x0000000000000000000000000000000000000000000000000000000001c9c380",
          "blockHash": "0x0000000000000000000000000000000000000000000000000000000000000000",
          "blockNumber": "0x23a3c44",
          "blockTimestamp": "0x6987d768",
          "transactionHash": "0x5b410a8f7ff156ec8277c7a3cd969f0fef4229dc5212704969aa7aafede73e60",
          "transactionIndex": "0x2",
          "logIndex": "0x3",
          "removed": false
        },
        {
          "address": "0x036cbd53842c5426634e7929541ec2318f3dcf7e",
          "topics": [
            "0xddf252ad1be2c89b69c2b068fc378daa952ba7f163c4a11628f55a4df523b3ef",
            "0x000000000000000000000000cd0929e149eacff1a1b3c4cd9dd08b4e17b6d2c1",
            "0x00000000000000000000000025cde49d19ca3bd2703e176c6e364a10be250fc8"
          ],
          "data": "0x0000000000000000000000000000000000000000000000000000000001c9c380",
          "blockHash": "0x0000000000000000000000000000000000000000000000000000000000000000",
          "blockNumber": "0x23a3c44",
          "blockTimestamp": "0x6987d768",
          "transactionHash": "0x5b410a8f7ff156ec8277c7a3cd969f0fef4229dc5212704969aa7aafede73e60",
          "transactionIndex": "0x2",
          "logIndex": "0x4",
          "removed": false
        },
        {
          "address": "0x036cbd53842c5426634e7929541ec2318f3dcf7e",
          "topics": [
            "0x8c5be1e5ebec7d5bd14f71427d1e84f3dd0314c0f7b2291e5b200ac8c7c3b925",
            "0x00000000000000000000000025cde49d19ca3bd2703e176c6e364a10be250fc8",
            "0x00000000000000000000000001aad94d3071ec8c26def854f92aad46df5cf52a"
          ],
          "data": "0x0000000000000000000000000000000000000000000000000000000000000000",
          "blockHash": "0x0000000000000000000000000000000000000000000000000000000000000000",
          "blockNumber": "0x23a3c44",
          "blockTimestamp": "0x6987d768",
          "transactionHash": "0x5b410a8f7ff156ec8277c7a3cd969f0fef4229dc5212704969aa7aafede73e60",
          "transactionIndex": "0x2",
          "logIndex": "0x5",
          "removed": false
        },
        {
          "address": "0x036cbd53842c5426634e7929541ec2318f3dcf7e",
          "topics": [
            "0x8c5be1e5ebec7d5bd14f71427d1e84f3dd0314c0f7b2291e5b200ac8c7c3b925",
            "0x00000000000000000000000025cde49d19ca3bd2703e176c6e364a10be250fc8",
            "0x00000000000000000000000001aad94d3071ec8c26def854f92aad46df5cf52a"
          ],
          "data": "0x0000000000000000000000000000000000000000000000000000000001c9c380",
          "blockHash": "0x0000000000000000000000000000000000000000000000000000000000000000",
          "blockNumber": "0x23a3c44",
          "blockTimestamp": "0x6987d768",
          "transactionHash": "0x5b410a8f7ff156ec8277c7a3cd969f0fef4229dc5212704969aa7aafede73e60",
          "transactionIndex": "0x2",
          "logIndex": "0x6",
          "removed": false
        },
        {
          "address": "0x036cbd53842c5426634e7929541ec2318f3dcf7e",
          "topics": [
            "0xddf252ad1be2c89b69c2b068fc378daa952ba7f163c4a11628f55a4df523b3ef",
            "0x00000000000000000000000025cde49d19ca3bd2703e176c6e364a10be250fc8",
            "0x00000000000000000000000001aad94d3071ec8c26def854f92aad46df5cf52a"
          ],
          "data": "0x0000000000000000000000000000000000000000000000000000000001c9c380",
          "blockHash": "0x0000000000000000000000000000000000000000000000000000000000000000",
          "blockNumber": "0x23a3c44",
          "blockTimestamp": "0x6987d768",
          "transactionHash": "0x5b410a8f7ff156ec8277c7a3cd969f0fef4229dc5212704969aa7aafede73e60",
          "transactionIndex": "0x2",
          "logIndex": "0x7",
          "removed": false
        },
        {
          "address": "0x01aad94d3071ec8c26def854f92aad46df5cf52a",
          "topics": [
            "0x73a19dd210f1a7f902193214c0ee91dd35ee5b4d920cba8d519eca65a7b488ca",
            "0x00000000000000000000000025cde49d19ca3bd2703e176c6e364a10be250fc8"
          ],
          "data": "0x0000000000000000000000000000000000000000000000000000000001c9c3800000000000000000000000000000000000000000000000000000000001c9c380",
          "blockHash": "0x0000000000000000000000000000000000000000000000000000000000000000",
          "blockNumber": "0x23a3c44",
          "blockTimestamp": "0x6987d768",
          "transactionHash": "0x5b410a8f7ff156ec8277c7a3cd969f0fef4229dc5212704969aa7aafede73e60",
          "transactionIndex": "0x2",
          "logIndex": "0x8",
          "removed": false
        },
        {
          "address": "0x25cde49d19ca3bd2703e176c6e364a10be250fc8",
          "topics": [
            "0xab0b2ef41c338acfc198edd27de0adc9bb4fd7eca431d4e863f60b41d783509e"
          ],
          "data": "0x0000000000000000000000000000000000000000000000000000000001c9c380",
          "blockHash": "0x0000000000000000000000000000000000000000000000000000000000000000",
          "blockNumber": "0x23a3c44",
          "blockTimestamp": "0x6987d768",
          "transactionHash": "0x5b410a8f7ff156ec8277c7a3cd969f0fef4229dc5212704969aa7aafede73e60",
          "transactionIndex": "0x2",
          "logIndex": "0x9",
          "removed": false
        },
        {
          "address": "0xcd0929e149eacff1a1b3c4cd9dd08b4e17b6d2c1",
          "topics": [
            "0xac9f7997c30b6a3cc9c74953898b5de154359339c7ec0d6d70ceb98e55db1a4b"
          ],
          "data": "0x0000000000000000000000000000000000000000000000000000000001c9c380",
          "blockHash": "0x0000000000000000000000000000000000000000000000000000000000000000",
          "blockNumber": "0x23a3c44",
          "blockTimestamp": "0x6987d768",
          "transactionHash": "0x5b410a8f7ff156ec8277c7a3cd969f0fef4229dc5212704969aa7aafede73e60",
          "transactionIndex": "0x2",
          "logIndex": "0xa",
          "removed": false
        }
      ],
      "logsBloom": "0x00000000040004000000000000000000020000000000000000000000000000000000020000000000000900000000002000000000080000000000000040200000000000400000000000000018000000000000000000000000000000080000000800000004000100040000000000000000000000000020000000000010000000000000000020000000000000000000000000000040000000000000000000000000020000000000000000000000000000002000000800000800000000000000000000000002000000000000000000000000010010000000010000000000000000010011100000000000000000000028000000000000000000000000000000000000",
      "type": "0x2",
      "transactionHash": "0x5b410a8f7ff156ec8277c7a3cd969f0fef4229dc5212704969aa7aafede73e60",
      "transactionIndex": "0x2",
      "blockHash": "0x0000000000000000000000000000000000000000000000000000000000000000",
      "blockNumber": "0x23a3c44",
      "gasUsed": "0x2b135",
      "effectiveGasPrice": "0x124f80",
      "blobGasUsed": "0x79e0",
      "from": "0x042e8214dcfc8648b7b98f173c523611274e81c9",
      "to": "0xcd0929e149eacff1a1b3c4cd9dd08b4e17b6d2c1",
      "contractAddress": null,
      "daFootprintGasScalar": "0x138",
      "l1BaseFeeScalar": "0x44d",
      "l1BlobBaseFee": "0x34f4c79",
      "l1BlobBaseFeeScalar": "0xa118b",
      "l1Fee": "0x1480347dd",
      "l1GasPrice": "0x3e39f1bd",
      "l1GasUsed": "0x640"
    },
    {
      "status": "0x1",
      "cumulativeGasUsed": "0x74478",
      "logs": [
        {
          "address": "0xcd0929e149eacff1a1b3c4cd9dd08b4e17b6d2c1",
          "topics": [
            "0x4730a01abb080a0c96276f16983c7a2643cbac952865b2c004ec3bf7e107038a",
            "0x000000000000000000000000042e8214dcfc8648b7b98f173c523611274e81c9",
            "0x00000000000000000000000026ba8aa82bffbeb099255040ad83fdc8a9b0e2db"
          ],
          "data": "0x00000000000000000000000000000000000000000000000000000000000000010000000000000000000000000000000000000000000000000000000001312d000000000000000000000000000000000000000000000000000000000005f5e1000000000000000000000000000000000000000000000000000000000000000001",
          "blockHash": "0x0000000000000000000000000000000000000000000000000000000000000000",
          "blockNumber": "0x23a3c44",
          "blockTimestamp": "0x6987d768",
          "transactionHash": "0x7f581b73487708255c6107cd865d3533af4b2d9319283e0e8d813025c8838a10",
          "transactionIndex": "0x3",
          "logIndex": "0xb",
          "removed": false
        }
      ],
      "logsBloom": "0x00000000000000000001000000000000000000000000000000000000800000000000020000000000000000000000000000000000000000000000000000000000000000000000000000000010000000000000000000000000000000000000000000000000000000000000200000000000000000000000000000000000000004000000000040000000000000000000000000000000020000020000000000000000000000000000000000000000000000000000200000000800000000000000000000000000000000000000000000000000000000000000000000000000000000000000000000000000000400000000000000000000000000000000000000000000",
      "type": "0x2",
      "transactionHash": "0x7f581b73487708255c6107cd865d3533af4b2d9319283e0e8d813025c8838a10",
      "transactionIndex": "0x3",
      "blockHash": "0x0000000000000000000000000000000000000000000000000000000000000000",
      "blockNumber": "0x23a3c44",
      "gasUsed": "0x1d70b",
      "effectiveGasPrice": "0x124f80",
      "blobGasUsed": "0xe790",
      "from": "0x042e8214dcfc8648b7b98f173c523611274e81c9",
      "to": "0xcd0929e149eacff1a1b3c4cd9dd08b4e17b6d2c1",
      "contractAddress": null,
      "daFootprintGasScalar": "0x138",
      "l1BaseFeeScalar": "0x44d",
      "l1BlobBaseFee": "0x34f4c79",
      "l1BlobBaseFeeScalar": "0xa118b",
      "l1Fee": "0x1480347dd",
      "l1GasPrice": "0x3e39f1bd",
      "l1GasUsed": "0xbec"
    },
    {
      "status": "0x1",
      "cumulativeGasUsed": "0x8283e",
      "logs": [
        {
          "address": "0xcd0929e149eacff1a1b3c4cd9dd08b4e17b6d2c1",
          "topics": [
            "0xbfbbc757b8dd4dce3e268ae9b30b3e657dde86930629c2044a9d6102f0e92f37",
            "0x000000000000000000000000042e8214dcfc8648b7b98f173c523611274e81c9",
            "0x00000000000000000000000026ba8aa82bffbeb099255040ad83fdc8a9b0e2db",
            "0x000000000000000000000000df3c4a3634b88e42fe9ee652619f0a59bc747174"
          ],
          "data": "0x0000000000000000000000000000000000000000000000000000000000000001",
          "blockHash": "0x0000000000000000000000000000000000000000000000000000000000000000",
          "blockNumber": "0x23a3c44",
          "blockTimestamp": "0x6987d768",
          "transactionHash": "0xee760c4933ba12309432fa0a776412a1f1ac0b586a637782d1af50defd37d6f2",
          "transactionIndex": "0x4",
          "logIndex": "0xc",
          "removed": false
        }
      ],
      "logsBloom": "0x00000000008000000001000000000000000000000000000000000000000000000000020000000000000000000000000000000000000000000000000000000000000000000000000000000010000000000000000000000000000000000040000000000000000000000000200000000000000000000000000000000000000004000000000040000000000000000000000000000000020000028000000000000000000000000000000000000000000000000000000000040800000000000000000000000000000000000000000000000000000000000000000000000000000000000000000000000000000000000000000000000000000002000000000000200000",
      "type": "0x2",
      "transactionHash": "0xee760c4933ba12309432fa0a776412a1f1ac0b586a637782d1af50defd37d6f2",
      "transactionIndex": "0x4",
      "blockHash": "0x0000000000000000000000000000000000000000000000000000000000000000",
      "blockNumber": "0x23a3c44",
      "gasUsed": "0xe3c6",
      "effectiveGasPrice": "0x124f80",
      "blobGasUsed": "0xf288",
      "from": "0x042e8214dcfc8648b7b98f173c523611274e81c9",
      "to": "0xcd0929e149eacff1a1b3c4cd9dd08b4e17b6d2c1",
      "contractAddress": null,
      "daFootprintGasScalar": "0x138",
      "l1BaseFeeScalar": "0x44d",
      "l1BlobBaseFee": "0x34f4c79",
      "l1BlobBaseFeeScalar": "0xa118b",
      "l1Fee": "0x1480347dd",
      "l1GasPrice": "0x3e39f1bd",
      "l1GasUsed": "0xc72"
    },
    {
      "status": "0x1",
      "cumulativeGasUsed": "0x900cb",
      "logs": [
        {
          "address": "0x036cbd53842c5426634e7929541ec2318f3dcf7e",
          "topics": [
            "0x8c5be1e5ebec7d5bd14f71427d1e84f3dd0314c0f7b2291e5b200ac8c7c3b925",
            "0x000000000000000000000000042e8214dcfc8648b7b98f173c523611274e81c9",
            "0x00000000000000000000000001aad94d3071ec8c26def854f92aad46df5cf52a"
          ],
          "data": "0x0000000000000000000000000000000000000000000000000000000000989680",
          "blockHash": "0x0000000000000000000000000000000000000000000000000000000000000000",
          "blockNumber": "0x23a3c44",
          "blockTimestamp": "0x6987d768",
          "transactionHash": "0x6ff120229b9a443be2886c53aecdf3435cd91c8de15ad30538cb3f059515dcef",
          "transactionIndex": "0x5",
          "logIndex": "0xd",
          "removed": false
        }
      ],
      "logsBloom": "0x00000000040000000001000000000000000000000000000000000000000000000000000000000000000000000000000000000000000000000000000000200000000000000000000000000000000000000000000000000000000000000000000800000000000100000000200000000000000000000000000000000000000000000000000000000000000000000000000000000000020000000000000000000000020000000000000000000000000000000000000000000000000000000000000000000000000000000000000000000000000000000000010000000000000000010010000000000000000000000020000000000000000000000000000000000000",
      "type": "0x2",
      "transactionHash": "0x6ff120229b9a443be2886c53aecdf3435cd91c8de15ad30538cb3f059515dcef",
      "transactionIndex": "0x5",
      "blockHash": "0x0000000000000000000000000000000000000000000000000000000000000000",
      "blockNumber": "0x23a3c44",
      "gasUsed": "0xd88d",
      "effectiveGasPrice": "0x124f80",
      "blobGasUsed": "0x79e0",
      "from": "0x042e8214dcfc8648b7b98f173c523611274e81c9",
      "to": "0x036cbd53842c5426634e7929541ec2318f3dcf7e",
      "contractAddress": null,
      "daFootprintGasScalar": "0x138",
      "l1BaseFeeScalar": "0x44d",
      "l1BlobBaseFee": "0x34f4c79",
      "l1BlobBaseFeeScalar": "0xa118b",
      "l1Fee": "0x1480347dd",
      "l1GasPrice": "0x3e39f1bd",
      "l1GasUsed": "0x640"
    },
    {
      "status": "0x1",
      "cumulativeGasUsed": "0x9c68a",
      "logs": [
        {
          "address": "0x036cbd53842c5426634e7929541ec2318f3dcf7e",
          "topics": [
            "0xddf252ad1be2c89b69c2b068fc378daa952ba7f163c4a11628f55a4df523b3ef",
            "0x000000000000000000000000042e8214dcfc8648b7b98f173c523611274e81c9",
            "0x00000000000000000000000001aad94d3071ec8c26def854f92aad46df5cf52a"
          ],
          "data": "0x0000000000000000000000000000000000000000000000000000000000989680",
          "blockHash": "0x0000000000000000000000000000000000000000000000000000000000000000",
          "blockNumber": "0x23a3c44",
          "blockTimestamp": "0x6987d768",
          "transactionHash": "0xbd9059b0e6c8825e0e90cc05534d1e55399392b4f9606d02523e6e450d03a45e",
          "transactionIndex": "0x6",
          "logIndex": "0xe",
          "removed": false
        },
        {
          "address": "0x01aad94d3071ec8c26def854f92aad46df5cf52a",
          "topics": [
            "0xdde74234f2e045fc80d32ef78bcc54f374a5828062ad1f26e515ae38c2846bf1",
            "0x000000000000000000000000042e8214dcfc8648b7b98f173c523611274e81c9"
          ],
          "data": "0x0000000000000000000000000000000000000000000000000000000000989680",
          "blockHash": "0x0000000000000000000000000000000000000000000000000000000000000000",
          "blockNumber": "0x23a3c44",
          "blockTimestamp": "0x6987d768",
          "transactionHash": "0xbd9059b0e6c8825e0e90cc05534d1e55399392b4f9606d02523e6e450d03a45e",
          "transactionIndex": "0x6",
          "logIndex": "0xf",
          "removed": false
        }
      ],
      "logsBloom": "0x00000000040000000001000000000000000000000000000000000000000000000000000000000000000000800000000000200000000000000000000040000000000000000000000000000008000000000000000000000000000000000000000800000000000100040000200000000000000000000000000000000010000000000000000000000000000000000000000000000000020000000000000000000000000000000000000000000000000000000000000800000000000000000000000000000002000000000000000000000000000000000000010000000000000000010200000000000000000000000020000000000000000000000000000000000000",
      "type": "0x2",
      "transactionHash": "0xbd9059b0e6c8825e0e90cc05534d1e55399392b4f9606d02523e6e450d03a45e",
      "transactionIndex": "0x6",
      "blockHash": "0x0000000000000000000000000000000000000000000000000000000000000000",
      "blockNumber": "0x23a3c44",
      "gasUsed": "0xc5bf",
      "effectiveGasPrice": "0x124f80",
      "blobGasUsed": "0x79e0",
      "from": "0x042e8214dcfc8648b7b98f173c523611274e81c9",
      "to": "0x01aad94d3071ec8c26def854f92aad46df5cf52a",
      "contractAddress": null,
      "daFootprintGasScalar": "0x138",
      "l1BaseFeeScalar": "0x44d",
      "l1BlobBaseFee": "0x34f4c79",
      "l1BlobBaseFeeScalar": "0xa118b",
      "l1Fee": "0x1480347dd",
      "l1GasPrice": "0x3e39f1bd",
      "l1GasUsed": "0x640"
    },
    {
      "status": "0x1",
      "cumulativeGasUsed": "0xa70c5",
      "logs": [
        {
          "address": "0x01aad94d3071ec8c26def854f92aad46df5cf52a",
          "topics": [
            "0x03ee444456b393197d4d278ef9dbbd4fafe9bd43d5e063d0a647524b7c157944"
          ],
          "data": "0x00000000000000000000000000000000000000000000000000000000009896800000000000000000000000000000000000000000000000001280f39a34855555",
          "blockHash": "0x0000000000000000000000000000000000000000000000000000000000000000",
          "blockNumber": "0x23a3c44",
          "blockTimestamp": "0x6987d768",
          "transactionHash": "0x3099b435e60a510edff4964067c73d69b0b1caffd495d9adb54a7eead9d9f4b7",
          "transactionIndex": "0x7",
          "logIndex": "0x10",
          "removed": false
        }
      ],
      "logsBloom": "0x00000000000000000000000000000000000000000000000000000001000000000000000000000000000000000000000000000000000000000000000040000000000000000000000000000000000000000000000000000000000000000000000000000000000000040000000000000000000000000000000000000000000000000000000000000000000000000000000000000000000000000000000000000000000000000000000000000000000000000000000800000000000000000000000000000000000000000000000000000000000002000000000000000000000000000000000000004000000000000000000000000000000000000000000000000000",
      "type": "0x2",
      "transactionHash": "0x3099b435e60a510edff4964067c73d69b0b1caffd495d9adb54a7eead9d9f4b7",
      "transactionIndex": "0x7",
      "blockHash": "0x0000000000000000000000000000000000000000000000000000000000000000",
      "blockNumber": "0x23a3c44",
      "gasUsed": "0xaa3b",
      "effectiveGasPrice": "0x124f80",
      "blobGasUsed": "0x79e0",
      "from": "0x042e8214dcfc8648b7b98f173c523611274e81c9",
      "to": "0x01aad94d3071ec8c26def854f92aad46df5cf52a",
      "contractAddress": null,
      "daFootprintGasScalar": "0x138",
      "l1BaseFeeScalar": "0x44d",
      "l1BlobBaseFee": "0x34f4c79",
      "l1BlobBaseFeeScalar": "0xa118b",
      "l1Fee": "0x1480347dd",
      "l1GasPrice": "0x3e39f1bd",
      "l1GasUsed": "0x640"
    }
  ],
  "libraries": [],
  "pending": [],
  "returns": {},
  "timestamp": 1770510183824,
  "chain": 84532,
  "commit": null
}